{
	"assert.sol": {
		"AssertStatement": {
			"abi": [
				{
					"inputs": [
						{
							"internalType": "uint256",
							"name": "_num1",
							"type": "uint256"
						},
						{
							"internalType": "uint256",
							"name": "_num2",
							"type": "uint256"
						}
					],
					"name": "checkNum",
					"outputs": [
						{
							"internalType": "bool",
							"name": "",
							"type": "bool"
						}
					],
					"stateMutability": "nonpayable",
					"type": "function"
				},
				{
					"inputs": [],
					"name": "getResult",
					"outputs": [
						{
							"internalType": "string",
							"name": "",
							"type": "string"
						}
					],
					"stateMutability": "view",
					"type": "function"
				}
			],
			"devdoc": {
				"kind": "dev",
				"methods": {},
				"version": 1
			},
			"evm": {
				"assembly": "    /* \"assert.sol\":61:570  contract AssertStatement {... */\n  mstore(0x40, 0x80)\n  callvalue\n  dup1\n  iszero\n  tag_1\n  jumpi\n  0x00\n  dup1\n  revert\ntag_1:\n  pop\n  dataSize(sub_0)\n  dup1\n  dataOffset(sub_0)\n  0x00\n  codecopy\n  0x00\n  return\nstop\n\nsub_0: assembly {\n        /* \"assert.sol\":61:570  contract AssertStatement {... */\n      mstore(0x40, 0x80)\n      callvalue\n      dup1\n      iszero\n      tag_1\n      jumpi\n      0x00\n      dup1\n      revert\n    tag_1:\n      pop\n      jumpi(tag_2, lt(calldatasize, 0x04))\n      shr(0xe0, calldataload(0x00))\n      dup1\n      0x76dddfd9\n      eq\n      tag_3\n      jumpi\n      dup1\n      0xde292789\n      eq\n      tag_4\n      jumpi\n    tag_2:\n      0x00\n      dup1\n      revert\n        /* \"assert.sol\":157:317  function checkNum (uint _num1, uint _num2) public returns (bool){... */\n    tag_3:\n      tag_5\n      0x04\n      dup1\n      calldatasize\n      sub\n      dup2\n      add\n      swap1\n      tag_6\n      swap2\n      swap1\n      tag_7\n      jump\t// in\n    tag_6:\n      tag_8\n      jump\t// in\n    tag_5:\n      mload(0x40)\n      tag_9\n      swap2\n      swap1\n      tag_10\n      jump\t// in\n    tag_9:\n      mload(0x40)\n      dup1\n      swap2\n      sub\n      swap1\n      return\n        /* \"assert.sol\":356:567  function getResult() public view returns(string memory) {... */\n    tag_4:\n      tag_11\n      tag_12\n      jump\t// in\n    tag_11:\n      mload(0x40)\n      tag_13\n      swap2\n      swap1\n      tag_14\n      jump\t// in\n    tag_13:\n      mload(0x40)\n      dup1\n      swap2\n      sub\n      swap1\n      return\n        /* \"assert.sol\":157:317  function checkNum (uint _num1, uint _num2) public returns (bool){... */\n    tag_8:\n        /* \"assert.sol\":216:220  bool */\n      0x00\n        /* \"assert.sol\":232:240  uint sum */\n      dup1\n        /* \"assert.sol\":251:256  _num2 */\n      dup3\n        /* \"assert.sol\":243:248  _num1 */\n      dup5\n        /* \"assert.sol\":243:256  _num1 + _num2 */\n      tag_16\n      swap2\n      swap1\n      tag_17\n      jump\t// in\n    tag_16:\n        /* \"assert.sol\":232:256  uint sum = _num1 + _num2 */\n      swap1\n      pop\n        /* \"assert.sol\":281:284  255 */\n      0xff\n        /* \"assert.sol\":274:277  sum */\n      dup2\n        /* \"assert.sol\":274:284  sum <= 255 */\n      gt\n      iszero\n        /* \"assert.sol\":267:285  assert(sum <= 255) */\n      tag_18\n      jumpi\n      tag_19\n      tag_20\n      jump\t// in\n    tag_19:\n    tag_18:\n        /* \"assert.sol\":305:309  true */\n      0x01\n        /* \"assert.sol\":296:302  result */\n      0x00\n      dup1\n        /* \"assert.sol\":296:309  result = true */\n      0x0100\n      exp\n      dup2\n      sload\n      dup2\n      0xff\n      mul\n      not\n      and\n      swap1\n      dup4\n      iszero\n      iszero\n      mul\n      or\n      swap1\n      sstore\n      pop\n        /* \"assert.sol\":221:317  {... */\n      pop\n        /* \"assert.sol\":157:317  function checkNum (uint _num1, uint _num2) public returns (bool){... */\n      swap3\n      swap2\n      pop\n      pop\n      jump\t// out\n        /* \"assert.sol\":356:567  function getResult() public view returns(string memory) {... */\n    tag_12:\n        /* \"assert.sol\":397:410  string memory */\n      0x60\n        /* \"assert.sol\":436:440  true */\n      0x01\n        /* \"assert.sol\":426:440  result == true */\n      iszero\n      iszero\n        /* \"assert.sol\":426:432  result */\n      0x00\n      dup1\n      sload\n      swap1\n      0x0100\n      exp\n      swap1\n      div\n      0xff\n      and\n        /* \"assert.sol\":426:440  result == true */\n      iszero\n      iszero\n      sub\n        /* \"assert.sol\":423:560  if(result == true) {... */\n      tag_22\n      jumpi\n        /* \"assert.sol\":457:484  return \"data is within 255\" */\n      mload(0x40)\n      dup1\n      0x40\n      add\n      0x40\n      mstore\n      dup1\n      0x12\n      dup2\n      mstore\n      0x20\n      add\n      0x646174612069732077697468696e203235350000000000000000000000000000\n      dup2\n      mstore\n      pop\n      swap1\n      pop\n      jump(tag_21)\n        /* \"assert.sol\":423:560  if(result == true) {... */\n    tag_22:\n        /* \"assert.sol\":517:548  return \"data is not within 255\" */\n      mload(0x40)\n      dup1\n      0x40\n      add\n      0x40\n      mstore\n      dup1\n      0x16\n      dup2\n      mstore\n      0x20\n      add\n      0x64617461206973206e6f742077697468696e2032353500000000000000000000\n      dup2\n      mstore\n      pop\n      swap1\n      pop\n        /* \"assert.sol\":356:567  function getResult() public view returns(string memory) {... */\n    tag_21:\n      swap1\n      jump\t// out\n        /* \"#utility.yul\":88:205   */\n    tag_25:\n        /* \"#utility.yul\":197:198   */\n      0x00\n        /* \"#utility.yul\":194:195   */\n      dup1\n        /* \"#utility.yul\":187:199   */\n      revert\n        /* \"#utility.yul\":334:411   */\n    tag_27:\n        /* \"#utility.yul\":371:378   */\n      0x00\n        /* \"#utility.yul\":400:405   */\n      dup2\n        /* \"#utility.yul\":389:405   */\n      swap1\n      pop\n        /* \"#utility.yul\":334:411   */\n      swap2\n      swap1\n      pop\n      jump\t// out\n        /* \"#utility.yul\":417:539   */\n    tag_28:\n        /* \"#utility.yul\":490:514   */\n      tag_44\n        /* \"#utility.yul\":508:513   */\n      dup2\n        /* \"#utility.yul\":490:514   */\n      tag_27\n      jump\t// in\n    tag_44:\n        /* \"#utility.yul\":483:488   */\n      dup2\n        /* \"#utility.yul\":480:515   */\n      eq\n        /* \"#utility.yul\":470:533   */\n      tag_45\n      jumpi\n        /* \"#utility.yul\":529:530   */\n      0x00\n        /* \"#utility.yul\":526:527   */\n      dup1\n        /* \"#utility.yul\":519:531   */\n      revert\n        /* \"#utility.yul\":470:533   */\n    tag_45:\n        /* \"#utility.yul\":417:539   */\n      pop\n      jump\t// out\n        /* \"#utility.yul\":545:684   */\n    tag_29:\n        /* \"#utility.yul\":591:596   */\n      0x00\n        /* \"#utility.yul\":629:635   */\n      dup2\n        /* \"#utility.yul\":616:636   */\n      calldataload\n        /* \"#utility.yul\":607:636   */\n      swap1\n      pop\n        /* \"#utility.yul\":645:678   */\n      tag_47\n        /* \"#utility.yul\":672:677   */\n      dup2\n        /* \"#utility.yul\":645:678   */\n      tag_28\n      jump\t// in\n    tag_47:\n        /* \"#utility.yul\":545:684   */\n      swap3\n      swap2\n      pop\n      pop\n      jump\t// out\n        /* \"#utility.yul\":690:1164   */\n    tag_7:\n        /* \"#utility.yul\":758:764   */\n      0x00\n        /* \"#utility.yul\":766:772   */\n      dup1\n        /* \"#utility.yul\":815:817   */\n      0x40\n        /* \"#utility.yul\":803:812   */\n      dup4\n        /* \"#utility.yul\":794:801   */\n      dup6\n        /* \"#utility.yul\":790:813   */\n      sub\n        /* \"#utility.yul\":786:818   */\n      slt\n        /* \"#utility.yul\":783:902   */\n      iszero\n      tag_49\n      jumpi\n        /* \"#utility.yul\":821:900   */\n      tag_50\n      tag_25\n      jump\t// in\n    tag_50:\n        /* \"#utility.yul\":783:902   */\n    tag_49:\n        /* \"#utility.yul\":941:942   */\n      0x00\n        /* \"#utility.yul\":966:1019   */\n      tag_51\n        /* \"#utility.yul\":1011:1018   */\n      dup6\n        /* \"#utility.yul\":1002:1008   */\n      dup3\n        /* \"#utility.yul\":991:1000   */\n      dup7\n        /* \"#utility.yul\":987:1009   */\n      add\n        /* \"#utility.yul\":966:1019   */\n      tag_29\n      jump\t// in\n    tag_51:\n        /* \"#utility.yul\":956:1019   */\n      swap3\n      pop\n        /* \"#utility.yul\":912:1029   */\n      pop\n        /* \"#utility.yul\":1068:1070   */\n      0x20\n        /* \"#utility.yul\":1094:1147   */\n      tag_52\n        /* \"#utility.yul\":1139:1146   */\n      dup6\n        /* \"#utility.yul\":1130:1136   */\n      dup3\n        /* \"#utility.yul\":1119:1128   */\n      dup7\n        /* \"#utility.yul\":1115:1137   */\n      add\n        /* \"#utility.yul\":1094:1147   */\n      tag_29\n      jump\t// in\n    tag_52:\n        /* \"#utility.yul\":1084:1147   */\n      swap2\n      pop\n        /* \"#utility.yul\":1039:1157   */\n      pop\n        /* \"#utility.yul\":690:1164   */\n      swap3\n      pop\n      swap3\n      swap1\n      pop\n      jump\t// out\n        /* \"#utility.yul\":1170:1260   */\n    tag_30:\n        /* \"#utility.yul\":1204:1211   */\n      0x00\n        /* \"#utility.yul\":1247:1252   */\n      dup2\n        /* \"#utility.yul\":1240:1253   */\n      iszero\n        /* \"#utility.yul\":1233:1254   */\n      iszero\n        /* \"#utility.yul\":1222:1254   */\n      swap1\n      pop\n        /* \"#utility.yul\":1170:1260   */\n      swap2\n      swap1\n      pop\n      jump\t// out\n        /* \"#utility.yul\":1266:1375   */\n    tag_31:\n        /* \"#utility.yul\":1347:1368   */\n      tag_55\n        /* \"#utility.yul\":1362:1367   */\n      dup2\n        /* \"#utility.yul\":1347:1368   */\n      tag_30\n      jump\t// in\n    tag_55:\n        /* \"#utility.yul\":1342:1345   */\n      dup3\n        /* \"#utility.yul\":1335:1369   */\n      mstore\n        /* \"#utility.yul\":1266:1375   */\n      pop\n      pop\n      jump\t// out\n        /* \"#utility.yul\":1381:1591   */\n    tag_10:\n        /* \"#utility.yul\":1468:1472   */\n      0x00\n        /* \"#utility.yul\":1506:1508   */\n      0x20\n        /* \"#utility.yul\":1495:1504   */\n      dup3\n        /* \"#utility.yul\":1491:1509   */\n      add\n        /* \"#utility.yul\":1483:1509   */\n      swap1\n      pop\n        /* \"#utility.yul\":1519:1584   */\n      tag_57\n        /* \"#utility.yul\":1581:1582   */\n      0x00\n        /* \"#utility.yul\":1570:1579   */\n      dup4\n        /* \"#utility.yul\":1566:1583   */\n      add\n        /* \"#utility.yul\":1557:1563   */\n      dup5\n        /* \"#utility.yul\":1519:1584   */\n      tag_31\n      jump\t// in\n    tag_57:\n        /* \"#utility.yul\":1381:1591   */\n      swap3\n      swap2\n      pop\n      pop\n      jump\t// out\n        /* \"#utility.yul\":1597:1696   */\n    tag_32:\n        /* \"#utility.yul\":1649:1655   */\n      0x00\n        /* \"#utility.yul\":1683:1688   */\n      dup2\n        /* \"#utility.yul\":1677:1689   */\n      mload\n        /* \"#utility.yul\":1667:1689   */\n      swap1\n      pop\n        /* \"#utility.yul\":1597:1696   */\n      swap2\n      swap1\n      pop\n      jump\t// out\n        /* \"#utility.yul\":1702:1871   */\n    tag_33:\n        /* \"#utility.yul\":1786:1797   */\n      0x00\n        /* \"#utility.yul\":1820:1826   */\n      dup3\n        /* \"#utility.yul\":1815:1818   */\n      dup3\n        /* \"#utility.yul\":1808:1827   */\n      mstore\n        /* \"#utility.yul\":1860:1864   */\n      0x20\n        /* \"#utility.yul\":1855:1858   */\n      dup3\n        /* \"#utility.yul\":1851:1865   */\n      add\n        /* \"#utility.yul\":1836:1865   */\n      swap1\n      pop\n        /* \"#utility.yul\":1702:1871   */\n      swap3\n      swap2\n      pop\n      pop\n      jump\t// out\n        /* \"#utility.yul\":1877:2016   */\n    tag_34:\n        /* \"#utility.yul\":1966:1972   */\n      dup3\n        /* \"#utility.yul\":1961:1964   */\n      dup2\n        /* \"#utility.yul\":1956:1959   */\n      dup4\n        /* \"#utility.yul\":1950:1973   */\n      mcopy\n        /* \"#utility.yul\":2007:2008   */\n      0x00\n        /* \"#utility.yul\":1998:2004   */\n      dup4\n        /* \"#utility.yul\":1993:1996   */\n      dup4\n        /* \"#utility.yul\":1989:2005   */\n      add\n        /* \"#utility.yul\":1982:2009   */\n      mstore\n        /* \"#utility.yul\":1877:2016   */\n      pop\n      pop\n      pop\n      jump\t// out\n        /* \"#utility.yul\":2022:2124   */\n    tag_35:\n        /* \"#utility.yul\":2063:2069   */\n      0x00\n        /* \"#utility.yul\":2114:2116   */\n      0x1f\n        /* \"#utility.yul\":2110:2117   */\n      not\n        /* \"#utility.yul\":2105:2107   */\n      0x1f\n        /* \"#utility.yul\":2098:2103   */\n      dup4\n        /* \"#utility.yul\":2094:2108   */\n      add\n        /* \"#utility.yul\":2090:2118   */\n      and\n        /* \"#utility.yul\":2080:2118   */\n      swap1\n      pop\n        /* \"#utility.yul\":2022:2124   */\n      swap2\n      swap1\n      pop\n      jump\t// out\n        /* \"#utility.yul\":2130:2507   */\n    tag_36:\n        /* \"#utility.yul\":2218:2221   */\n      0x00\n        /* \"#utility.yul\":2246:2285   */\n      tag_63\n        /* \"#utility.yul\":2279:2284   */\n      dup3\n        /* \"#utility.yul\":2246:2285   */\n      tag_32\n      jump\t// in\n    tag_63:\n        /* \"#utility.yul\":2301:2372   */\n      tag_64\n        /* \"#utility.yul\":2365:2371   */\n      dup2\n        /* \"#utility.yul\":2360:2363   */\n      dup6\n        /* \"#utility.yul\":2301:2372   */\n      tag_33\n      jump\t// in\n    tag_64:\n        /* \"#utility.yul\":2294:2372   */\n      swap4\n      pop\n        /* \"#utility.yul\":2381:2446   */\n      tag_65\n        /* \"#utility.yul\":2439:2445   */\n      dup2\n        /* \"#utility.yul\":2434:2437   */\n      dup6\n        /* \"#utility.yul\":2427:2431   */\n      0x20\n        /* \"#utility.yul\":2420:2425   */\n      dup7\n        /* \"#utility.yul\":2416:2432   */\n      add\n        /* \"#utility.yul\":2381:2446   */\n      tag_34\n      jump\t// in\n    tag_65:\n        /* \"#utility.yul\":2471:2500   */\n      tag_66\n        /* \"#utility.yul\":2493:2499   */\n      dup2\n        /* \"#utility.yul\":2471:2500   */\n      tag_35\n      jump\t// in\n    tag_66:\n        /* \"#utility.yul\":2466:2469   */\n      dup5\n        /* \"#utility.yul\":2462:2501   */\n      add\n        /* \"#utility.yul\":2455:2501   */\n      swap2\n      pop\n        /* \"#utility.yul\":2222:2507   */\n      pop\n        /* \"#utility.yul\":2130:2507   */\n      swap3\n      swap2\n      pop\n      pop\n      jump\t// out\n        /* \"#utility.yul\":2513:2826   */\n    tag_14:\n        /* \"#utility.yul\":2626:2630   */\n      0x00\n        /* \"#utility.yul\":2664:2666   */\n      0x20\n        /* \"#utility.yul\":2653:2662   */\n      dup3\n        /* \"#utility.yul\":2649:2667   */\n      add\n        /* \"#utility.yul\":2641:2667   */\n      swap1\n      pop\n        /* \"#utility.yul\":2713:2722   */\n      dup2\n        /* \"#utility.yul\":2707:2711   */\n      dup2\n        /* \"#utility.yul\":2703:2723   */\n      sub\n        /* \"#utility.yul\":2699:2700   */\n      0x00\n        /* \"#utility.yul\":2688:2697   */\n      dup4\n        /* \"#utility.yul\":2684:2701   */\n      add\n        /* \"#utility.yul\":2677:2724   */\n      mstore\n        /* \"#utility.yul\":2741:2819   */\n      tag_68\n        /* \"#utility.yul\":2814:2818   */\n      dup2\n        /* \"#utility.yul\":2805:2811   */\n      dup5\n        /* \"#utility.yul\":2741:2819   */\n      tag_36\n      jump\t// in\n    tag_68:\n        /* \"#utility.yul\":2733:2819   */\n      swap1\n      pop\n        /* \"#utility.yul\":2513:2826   */\n      swap3\n      swap2\n      pop\n      pop\n      jump\t// out\n        /* \"#utility.yul\":2832:3012   */\n    tag_37:\n        /* \"#utility.yul\":2880:2957   */\n      0x4e487b7100000000000000000000000000000000000000000000000000000000\n        /* \"#utility.yul\":2877:2878   */\n      0x00\n        /* \"#utility.yul\":2870:2958   */\n      mstore\n        /* \"#utility.yul\":2977:2981   */\n      0x11\n        /* \"#utility.yul\":2974:2975   */\n      0x04\n        /* \"#utility.yul\":2967:2982   */\n      mstore\n        /* \"#utility.yul\":3001:3005   */\n      0x24\n        /* \"#utility.yul\":2998:2999   */\n      0x00\n        /* \"#utility.yul\":2991:3006   */\n      revert\n        /* \"#utility.yul\":3018:3209   */\n    tag_17:\n        /* \"#utility.yul\":3058:3061   */\n      0x00\n        /* \"#utility.yul\":3077:3097   */\n      tag_71\n        /* \"#utility.yul\":3095:3096   */\n      dup3\n        /* \"#utility.yul\":3077:3097   */\n      tag_27\n      jump\t// in\n    tag_71:\n        /* \"#utility.yul\":3072:3097   */\n      swap2\n      pop\n        /* \"#utility.yul\":3111:3131   */\n      tag_72\n        /* \"#utility.yul\":3129:3130   */\n      dup4\n        /* \"#utility.yul\":3111:3131   */\n      tag_27\n      jump\t// in\n    tag_72:\n        /* \"#utility.yul\":3106:3131   */\n      swap3\n      pop\n        /* \"#utility.yul\":3154:3155   */\n      dup3\n        /* \"#utility.yul\":3151:3152   */\n      dup3\n        /* \"#utility.yul\":3147:3156   */\n      add\n        /* \"#utility.yul\":3140:3156   */\n      swap1\n      pop\n        /* \"#utility.yul\":3175:3178   */\n      dup1\n        /* \"#utility.yul\":3172:3173   */\n      dup3\n        /* \"#utility.yul\":3169:3179   */\n      gt\n        /* \"#utility.yul\":3166:3202   */\n      iszero\n      tag_73\n      jumpi\n        /* \"#utility.yul\":3182:3200   */\n      tag_74\n      tag_37\n      jump\t// in\n    tag_74:\n        /* \"#utility.yul\":3166:3202   */\n    tag_73:\n        /* \"#utility.yul\":3018:3209   */\n      swap3\n      swap2\n      pop\n      pop\n      jump\t// out\n        /* \"#utility.yul\":3215:3395   */\n    tag_20:\n        /* \"#utility.yul\":3263:3340   */\n      0x4e487b7100000000000000000000000000000000000000000000000000000000\n        /* \"#utility.yul\":3260:3261   */\n      0x00\n        /* \"#utility.yul\":3253:3341   */\n      mstore\n        /* \"#utility.yul\":3360:3364   */\n      0x01\n        /* \"#utility.yul\":3357:3358   */\n      0x04\n        /* \"#utility.yul\":3350:3365   */\n      mstore\n        /* \"#utility.yul\":3384:3388   */\n      0x24\n        /* \"#utility.yul\":3381:3382   */\n      0x00\n        /* \"#utility.yul\":3374:3389   */\n      revert\n\n    auxdata: 0xa2646970667358221220816a3361b1bd3a50e921a84ff7cd4397ef2980e527561dab3fb37a33b6846e6c64736f6c634300081a0033\n}\n",
				"bytecode": {
					"linkReferences": {},
					"object": "6080604052348015600e575f80fd5b506103568061001c5f395ff3fe608060405234801561000f575f80fd5b5060043610610034575f3560e01c806376dddfd914610038578063de29278914610068575b5f80fd5b610052600480360381019061004d9190610192565b610086565b60405161005f91906101ea565b60405180910390f35b6100706100c8565b60405161007d9190610273565b60405180910390f35b5f80828461009491906102c0565b905060ff8111156100a8576100a76102f3565b5b60015f806101000a81548160ff0219169083151502179055505092915050565b6060600115155f8054906101000a900460ff1615150361011f576040518060400160405280601281526020017f646174612069732077697468696e2032353500000000000000000000000000008152509050610158565b6040518060400160405280601681526020017f64617461206973206e6f742077697468696e203235350000000000000000000081525090505b90565b5f80fd5b5f819050919050565b6101718161015f565b811461017b575f80fd5b50565b5f8135905061018c81610168565b92915050565b5f80604083850312156101a8576101a761015b565b5b5f6101b58582860161017e565b92505060206101c68582860161017e565b9150509250929050565b5f8115159050919050565b6101e4816101d0565b82525050565b5f6020820190506101fd5f8301846101db565b92915050565b5f81519050919050565b5f82825260208201905092915050565b8281835e5f83830152505050565b5f601f19601f8301169050919050565b5f61024582610203565b61024f818561020d565b935061025f81856020860161021d565b6102688161022b565b840191505092915050565b5f6020820190508181035f83015261028b818461023b565b905092915050565b7f4e487b71000000000000000000000000000000000000000000000000000000005f52601160045260245ffd5b5f6102ca8261015f565b91506102d58361015f565b92508282019050808211156102ed576102ec610293565b5b92915050565b7f4e487b71000000000000000000000000000000000000000000000000000000005f52600160045260245ffdfea2646970667358221220816a3361b1bd3a50e921a84ff7cd4397ef2980e527561dab3fb37a33b6846e6c64736f6c634300081a0033",
					"opcodes": "PUSH1 0x80 PUSH1 0x40 MSTORE CALLVALUE DUP1 ISZERO PUSH1 0xE JUMPI PUSH0 DUP1 REVERT JUMPDEST POP PUSH2 0x356 DUP1 PUSH2 0x1C PUSH0 CODECOPY PUSH0 RETURN INVALID PUSH1 0x80 PUSH1 0x40 MSTORE CALLVALUE DUP1 ISZERO PUSH2 0xF JUMPI PUSH0 DUP1 REVERT JUMPDEST POP PUSH1 0x4 CALLDATASIZE LT PUSH2 0x34 JUMPI PUSH0 CALLDATALOAD PUSH1 0xE0 SHR DUP1 PUSH4 0x76DDDFD9 EQ PUSH2 0x38 JUMPI DUP1 PUSH4 0xDE292789 EQ PUSH2 0x68 JUMPI JUMPDEST PUSH0 DUP1 REVERT JUMPDEST PUSH2 0x52 PUSH1 0x4 DUP1 CALLDATASIZE SUB DUP2 ADD SWAP1 PUSH2 0x4D SWAP2 SWAP1 PUSH2 0x192 JUMP JUMPDEST PUSH2 0x86 JUMP JUMPDEST PUSH1 0x40 MLOAD PUSH2 0x5F SWAP2 SWAP1 PUSH2 0x1EA JUMP JUMPDEST PUSH1 0x40 MLOAD DUP1 SWAP2 SUB SWAP1 RETURN JUMPDEST PUSH2 0x70 PUSH2 0xC8 JUMP JUMPDEST PUSH1 0x40 MLOAD PUSH2 0x7D SWAP2 SWAP1 PUSH2 0x273 JUMP JUMPDEST PUSH1 0x40 MLOAD DUP1 SWAP2 SUB SWAP1 RETURN JUMPDEST PUSH0 DUP1 DUP3 DUP5 PUSH2 0x94 SWAP2 SWAP1 PUSH2 0x2C0 JUMP JUMPDEST SWAP1 POP PUSH1 0xFF DUP2 GT ISZERO PUSH2 0xA8 JUMPI PUSH2 0xA7 PUSH2 0x2F3 JUMP JUMPDEST JUMPDEST PUSH1 0x1 PUSH0 DUP1 PUSH2 0x100 EXP DUP2 SLOAD DUP2 PUSH1 0xFF MUL NOT AND SWAP1 DUP4 ISZERO ISZERO MUL OR SWAP1 SSTORE POP POP SWAP3 SWAP2 POP POP JUMP JUMPDEST PUSH1 0x60 PUSH1 0x1 ISZERO ISZERO PUSH0 DUP1 SLOAD SWAP1 PUSH2 0x100 EXP SWAP1 DIV PUSH1 0xFF AND ISZERO ISZERO SUB PUSH2 0x11F JUMPI PUSH1 0x40 MLOAD DUP1 PUSH1 0x40 ADD PUSH1 0x40 MSTORE DUP1 PUSH1 0x12 DUP2 MSTORE PUSH1 0x20 ADD PUSH32 0x646174612069732077697468696E203235350000000000000000000000000000 DUP2 MSTORE POP SWAP1 POP PUSH2 0x158 JUMP JUMPDEST PUSH1 0x40 MLOAD DUP1 PUSH1 0x40 ADD PUSH1 0x40 MSTORE DUP1 PUSH1 0x16 DUP2 MSTORE PUSH1 0x20 ADD PUSH32 0x64617461206973206E6F742077697468696E2032353500000000000000000000 DUP2 MSTORE POP SWAP1 POP JUMPDEST SWAP1 JUMP JUMPDEST PUSH0 DUP1 REVERT JUMPDEST PUSH0 DUP2 SWAP1 POP SWAP2 SWAP1 POP JUMP JUMPDEST PUSH2 0x171 DUP2 PUSH2 0x15F JUMP JUMPDEST DUP2 EQ PUSH2 0x17B JUMPI PUSH0 DUP1 REVERT JUMPDEST POP JUMP JUMPDEST PUSH0 DUP2 CALLDATALOAD SWAP1 POP PUSH2 0x18C DUP2 PUSH2 0x168 JUMP JUMPDEST SWAP3 SWAP2 POP POP JUMP JUMPDEST PUSH0 DUP1 PUSH1 0x40 DUP4 DUP6 SUB SLT ISZERO PUSH2 0x1A8 JUMPI PUSH2 0x1A7 PUSH2 0x15B JUMP JUMPDEST JUMPDEST PUSH0 PUSH2 0x1B5 DUP6 DUP3 DUP7 ADD PUSH2 0x17E JUMP JUMPDEST SWAP3 POP POP PUSH1 0x20 PUSH2 0x1C6 DUP6 DUP3 DUP7 ADD PUSH2 0x17E JUMP JUMPDEST SWAP2 POP POP SWAP3 POP SWAP3 SWAP1 POP JUMP JUMPDEST PUSH0 DUP2 ISZERO ISZERO SWAP1 POP SWAP2 SWAP1 POP JUMP JUMPDEST PUSH2 0x1E4 DUP2 PUSH2 0x1D0 JUMP JUMPDEST DUP3 MSTORE POP POP JUMP JUMPDEST PUSH0 PUSH1 0x20 DUP3 ADD SWAP1 POP PUSH2 0x1FD PUSH0 DUP4 ADD DUP5 PUSH2 0x1DB JUMP JUMPDEST SWAP3 SWAP2 POP POP JUMP JUMPDEST PUSH0 DUP2 MLOAD SWAP1 POP SWAP2 SWAP1 POP JUMP JUMPDEST PUSH0 DUP3 DUP3 MSTORE PUSH1 0x20 DUP3 ADD SWAP1 POP SWAP3 SWAP2 POP POP JUMP JUMPDEST DUP3 DUP2 DUP4 MCOPY PUSH0 DUP4 DUP4 ADD MSTORE POP POP POP JUMP JUMPDEST PUSH0 PUSH1 0x1F NOT PUSH1 0x1F DUP4 ADD AND SWAP1 POP SWAP2 SWAP1 POP JUMP JUMPDEST PUSH0 PUSH2 0x245 DUP3 PUSH2 0x203 JUMP JUMPDEST PUSH2 0x24F DUP2 DUP6 PUSH2 0x20D JUMP JUMPDEST SWAP4 POP PUSH2 0x25F DUP2 DUP6 PUSH1 0x20 DUP7 ADD PUSH2 0x21D JUMP JUMPDEST PUSH2 0x268 DUP2 PUSH2 0x22B JUMP JUMPDEST DUP5 ADD SWAP2 POP POP SWAP3 SWAP2 POP POP JUMP JUMPDEST PUSH0 PUSH1 0x20 DUP3 ADD SWAP1 POP DUP2 DUP2 SUB PUSH0 DUP4 ADD MSTORE PUSH2 0x28B DUP2 DUP5 PUSH2 0x23B JUMP JUMPDEST SWAP1 POP SWAP3 SWAP2 POP POP JUMP JUMPDEST PUSH32 0x4E487B7100000000000000000000000000000000000000000000000000000000 PUSH0 MSTORE PUSH1 0x11 PUSH1 0x4 MSTORE PUSH1 0x24 PUSH0 REVERT JUMPDEST PUSH0 PUSH2 0x2CA DUP3 PUSH2 0x15F JUMP JUMPDEST SWAP2 POP PUSH2 0x2D5 DUP4 PUSH2 0x15F JUMP JUMPDEST SWAP3 POP DUP3 DUP3 ADD SWAP1 POP DUP1 DUP3 GT ISZERO PUSH2 0x2ED JUMPI PUSH2 0x2EC PUSH2 0x293 JUMP JUMPDEST JUMPDEST SWAP3 SWAP2 POP POP JUMP JUMPDEST PUSH32 0x4E487B7100000000000000000000000000000000000000000000000000000000 PUSH0 MSTORE PUSH1 0x1 PUSH1 0x4 MSTORE PUSH1 0x24 PUSH0 REVERT INVALID LOG2 PUSH5 0x6970667358 0x22 SLT KECCAK256 DUP2 PUSH11 0x3361B1BD3A50E921A84FF7 0xCD NUMBER SWAP8 0xEF 0x29 DUP1 0xE5 0x27 JUMP SAR 0xAB EXTCODEHASH 0xB3 PUSH27 0x33B6846E6C64736F6C634300081A00330000000000000000000000 "
				},
				"gasEstimates": {
					"creation": {
						"codeDepositCost": "170800",
						"executionCost": "212",
						"totalCost": "171012"
					},
					"external": {
						"checkNum(uint256,uint256)": "infinite",
						"getResult()": "infinite"
					}
				},
				"methodIdentifiers": {
					"checkNum(uint256,uint256)": "76dddfd9",
					"getResult()": "de292789"
				}
			},
			"storageLayout": {
				"storage": [
					{
						"astId": 3,
						"contract": "assert.sol:AssertStatement",
						"label": "result",
						"offset": 0,
						"slot": "0",
						"type": "t_bool"
					}
				],
				"types": {
					"t_bool": {
						"encoding": "inplace",
						"label": "bool",
						"numberOfBytes": "1"
					}
				}
			},
			"userdoc": {
				"kind": "user",
				"methods": {},
				"version": 1
			}
		}
	}
}