{
	"ifElse.sol": {
		"IfEsle": {
			"abi": [
				{
					"inputs": [
						{
							"internalType": "uint256",
							"name": "_number",
							"type": "uint256"
						}
					],
					"name": "getInput",
					"outputs": [
						{
							"internalType": "string",
							"name": "",
							"type": "string"
						}
					],
					"stateMutability": "nonpayable",
					"type": "function"
				},
				{
					"inputs": [],
					"name": "number",
					"outputs": [
						{
							"internalType": "uint256",
							"name": "",
							"type": "uint256"
						}
					],
					"stateMutability": "view",
					"type": "function"
				},
				{
					"inputs": [
						{
							"internalType": "uint256",
							"name": "_inputNumber",
							"type": "uint256"
						}
					],
					"name": "shortHand",
					"outputs": [
						{
							"internalType": "string",
							"name": "",
							"type": "string"
						}
					],
					"stateMutability": "nonpayable",
					"type": "function"
				},
				{
					"inputs": [],
					"name": "text",
					"outputs": [
						{
							"internalType": "string",
							"name": "",
							"type": "string"
						}
					],
					"stateMutability": "view",
					"type": "function"
				}
			],
			"devdoc": {
				"kind": "dev",
				"methods": {},
				"version": 1
			},
			"evm": {
				"assembly": "    /* \"ifElse.sol\":61:612  contract IfEsle {... */\n  mstore(0x40, 0x80)\n    /* \"ifElse.sol\":105:107  15 */\n  0x0f\n    /* \"ifElse.sol\":84:107  uint public number = 15 */\n  0x00\n  sstore\n    /* \"ifElse.sol\":61:612  contract IfEsle {... */\n  callvalue\n  dup1\n  iszero\n  tag_1\n  jumpi\n  0x00\n  dup1\n  revert\ntag_1:\n  pop\n  dataSize(sub_0)\n  dup1\n  dataOffset(sub_0)\n  0x00\n  codecopy\n  0x00\n  return\nstop\n\nsub_0: assembly {\n        /* \"ifElse.sol\":61:612  contract IfEsle {... */\n      mstore(0x40, 0x80)\n      callvalue\n      dup1\n      iszero\n      tag_1\n      jumpi\n      0x00\n      dup1\n      revert\n    tag_1:\n      pop\n      jumpi(tag_2, lt(calldatasize, 0x04))\n      shr(0xe0, calldataload(0x00))\n      dup1\n      0x1f1bd692\n      eq\n      tag_3\n      jumpi\n      dup1\n      0x2dbceaff\n      eq\n      tag_4\n      jumpi\n      dup1\n      0x8381f58a\n      eq\n      tag_5\n      jumpi\n      dup1\n      0xa459600e\n      eq\n      tag_6\n      jumpi\n    tag_2:\n      0x00\n      dup1\n      revert\n        /* \"ifElse.sol\":114:132  string public text */\n    tag_3:\n      tag_7\n      tag_8\n      jump\t// in\n    tag_7:\n      mload(0x40)\n      tag_9\n      swap2\n      swap1\n      tag_10\n      jump\t// in\n    tag_9:\n      mload(0x40)\n      dup1\n      swap2\n      sub\n      swap1\n      return\n        /* \"ifElse.sol\":436:609  function shortHand(uint _inputNumber) public returns (string memory) {... */\n    tag_4:\n      tag_11\n      0x04\n      dup1\n      calldatasize\n      sub\n      dup2\n      add\n      swap1\n      tag_12\n      swap2\n      swap1\n      tag_13\n      jump\t// in\n    tag_12:\n      tag_14\n      jump\t// in\n    tag_11:\n      mload(0x40)\n      tag_15\n      swap2\n      swap1\n      tag_10\n      jump\t// in\n    tag_15:\n      mload(0x40)\n      dup1\n      swap2\n      sub\n      swap1\n      return\n        /* \"ifElse.sol\":84:107  uint public number = 15 */\n    tag_5:\n      tag_16\n      tag_17\n      jump\t// in\n    tag_16:\n      mload(0x40)\n      tag_18\n      swap2\n      swap1\n      tag_19\n      jump\t// in\n    tag_18:\n      mload(0x40)\n      dup1\n      swap2\n      sub\n      swap1\n      return\n        /* \"ifElse.sol\":141:368  function getInput(uint _number) public returns (string memory){... */\n    tag_6:\n      tag_20\n      0x04\n      dup1\n      calldatasize\n      sub\n      dup2\n      add\n      swap1\n      tag_21\n      swap2\n      swap1\n      tag_13\n      jump\t// in\n    tag_21:\n      tag_22\n      jump\t// in\n    tag_20:\n      mload(0x40)\n      tag_23\n      swap2\n      swap1\n      tag_10\n      jump\t// in\n    tag_23:\n      mload(0x40)\n      dup1\n      swap2\n      sub\n      swap1\n      return\n        /* \"ifElse.sol\":114:132  string public text */\n    tag_8:\n      0x01\n      dup1\n      sload\n      tag_24\n      swap1\n      tag_25\n      jump\t// in\n    tag_24:\n      dup1\n      0x1f\n      add\n      0x20\n      dup1\n      swap2\n      div\n      mul\n      0x20\n      add\n      mload(0x40)\n      swap1\n      dup2\n      add\n      0x40\n      mstore\n      dup1\n      swap3\n      swap2\n      swap1\n      dup2\n      dup2\n      mstore\n      0x20\n      add\n      dup3\n      dup1\n      sload\n      tag_26\n      swap1\n      tag_25\n      jump\t// in\n    tag_26:\n      dup1\n      iszero\n      tag_27\n      jumpi\n      dup1\n      0x1f\n      lt\n      tag_28\n      jumpi\n      0x0100\n      dup1\n      dup4\n      sload\n      div\n      mul\n      dup4\n      mstore\n      swap2\n      0x20\n      add\n      swap2\n      jump(tag_27)\n    tag_28:\n      dup3\n      add\n      swap2\n      swap1\n      0x00\n      mstore\n      keccak256(0x00, 0x20)\n      swap1\n    tag_29:\n      dup2\n      sload\n      dup2\n      mstore\n      swap1\n      0x01\n      add\n      swap1\n      0x20\n      add\n      dup1\n      dup4\n      gt\n      tag_29\n      jumpi\n      dup3\n      swap1\n      sub\n      0x1f\n      and\n      dup3\n      add\n      swap2\n    tag_27:\n      pop\n      pop\n      pop\n      pop\n      pop\n      dup2\n      jump\t// out\n        /* \"ifElse.sol\":436:609  function shortHand(uint _inputNumber) public returns (string memory) {... */\n    tag_14:\n        /* \"ifElse.sol\":490:503  string memory */\n      0x60\n        /* \"ifElse.sol\":536:538  15 */\n      0x0f\n        /* \"ifElse.sol\":520:532  _inputNumber */\n      dup3\n        /* \"ifElse.sol\":520:538  _inputNumber == 15 */\n      eq\n        /* \"ifElse.sol\":519:601  (_inputNumber == 15) ? text = \"Number is correct\" : text = \"Number is not correct\" */\n      tag_31\n      jumpi\n        /* \"ifElse.sol\":571:601  text = \"Number is not correct\" */\n      mload(0x40)\n      dup1\n      0x40\n      add\n      0x40\n      mstore\n      dup1\n      0x15\n      dup2\n      mstore\n      0x20\n      add\n      0x4e756d626572206973206e6f7420636f72726563740000000000000000000000\n      dup2\n      mstore\n      pop\n        /* \"ifElse.sol\":571:575  text */\n      0x01\n        /* \"ifElse.sol\":571:601  text = \"Number is not correct\" */\n      swap1\n      dup2\n      tag_32\n      swap2\n      swap1\n      tag_33\n      jump\t// in\n    tag_32:\n        /* \"ifElse.sol\":519:601  (_inputNumber == 15) ? text = \"Number is correct\" : text = \"Number is not correct\" */\n      jump(tag_34)\n    tag_31:\n        /* \"ifElse.sol\":542:568  text = \"Number is correct\" */\n      mload(0x40)\n      dup1\n      0x40\n      add\n      0x40\n      mstore\n      dup1\n      0x11\n      dup2\n      mstore\n      0x20\n      add\n      0x4e756d62657220697320636f7272656374000000000000000000000000000000\n      dup2\n      mstore\n      pop\n        /* \"ifElse.sol\":542:546  text */\n      0x01\n        /* \"ifElse.sol\":542:568  text = \"Number is correct\" */\n      swap1\n      dup2\n      tag_35\n      swap2\n      swap1\n      tag_33\n      jump\t// in\n    tag_35:\n        /* \"ifElse.sol\":519:601  (_inputNumber == 15) ? text = \"Number is correct\" : text = \"Number is not correct\" */\n    tag_34:\n        /* \"ifElse.sol\":512:601  return (_inputNumber == 15) ? text = \"Number is correct\" : text = \"Number is not correct\" */\n      dup1\n      sload\n      tag_36\n      swap1\n      tag_25\n      jump\t// in\n    tag_36:\n      dup1\n      0x1f\n      add\n      0x20\n      dup1\n      swap2\n      div\n      mul\n      0x20\n      add\n      mload(0x40)\n      swap1\n      dup2\n      add\n      0x40\n      mstore\n      dup1\n      swap3\n      swap2\n      swap1\n      dup2\n      dup2\n      mstore\n      0x20\n      add\n      dup3\n      dup1\n      sload\n      tag_37\n      swap1\n      tag_25\n      jump\t// in\n    tag_37:\n      dup1\n      iszero\n      tag_38\n      jumpi\n      dup1\n      0x1f\n      lt\n      tag_39\n      jumpi\n      0x0100\n      dup1\n      dup4\n      sload\n      div\n      mul\n      dup4\n      mstore\n      swap2\n      0x20\n      add\n      swap2\n      jump(tag_38)\n    tag_39:\n      dup3\n      add\n      swap2\n      swap1\n      0x00\n      mstore\n      keccak256(0x00, 0x20)\n      swap1\n    tag_40:\n      dup2\n      sload\n      dup2\n      mstore\n      swap1\n      0x01\n      add\n      swap1\n      0x20\n      add\n      dup1\n      dup4\n      gt\n      tag_40\n      jumpi\n      dup3\n      swap1\n      sub\n      0x1f\n      and\n      dup3\n      add\n      swap2\n    tag_38:\n      pop\n      pop\n      pop\n      pop\n      pop\n      swap1\n      pop\n        /* \"ifElse.sol\":436:609  function shortHand(uint _inputNumber) public returns (string memory) {... */\n      swap2\n      swap1\n      pop\n      jump\t// out\n        /* \"ifElse.sol\":84:107  uint public number = 15 */\n    tag_17:\n      sload(0x00)\n      dup2\n      jump\t// out\n        /* \"ifElse.sol\":141:368  function getInput(uint _number) public returns (string memory){... */\n    tag_22:\n        /* \"ifElse.sol\":189:202  string memory */\n      0x60\n        /* \"ifElse.sol\":228:230  15 */\n      0x0f\n        /* \"ifElse.sol\":217:224  _number */\n      dup3\n        /* \"ifElse.sol\":217:230  _number == 15 */\n      sub\n        /* \"ifElse.sol\":214:361  if(_number == 15){... */\n      tag_42\n      jumpi\n        /* \"ifElse.sol\":253:279  text = \"Number is correct\" */\n      mload(0x40)\n      dup1\n      0x40\n      add\n      0x40\n      mstore\n      dup1\n      0x11\n      dup2\n      mstore\n      0x20\n      add\n      0x4e756d62657220697320636f7272656374000000000000000000000000000000\n      dup2\n      mstore\n      pop\n        /* \"ifElse.sol\":253:257  text */\n      0x01\n        /* \"ifElse.sol\":253:279  text = \"Number is correct\" */\n      swap1\n      dup2\n      tag_43\n      swap2\n      swap1\n      tag_33\n      jump\t// in\n    tag_43:\n        /* \"ifElse.sol\":246:279  return text = \"Number is correct\" */\n      dup1\n      sload\n      tag_44\n      swap1\n      tag_25\n      jump\t// in\n    tag_44:\n      dup1\n      0x1f\n      add\n      0x20\n      dup1\n      swap2\n      div\n      mul\n      0x20\n      add\n      mload(0x40)\n      swap1\n      dup2\n      add\n      0x40\n      mstore\n      dup1\n      swap3\n      swap2\n      swap1\n      dup2\n      dup2\n      mstore\n      0x20\n      add\n      dup3\n      dup1\n      sload\n      tag_45\n      swap1\n      tag_25\n      jump\t// in\n    tag_45:\n      dup1\n      iszero\n      tag_46\n      jumpi\n      dup1\n      0x1f\n      lt\n      tag_47\n      jumpi\n      0x0100\n      dup1\n      dup4\n      sload\n      div\n      mul\n      dup4\n      mstore\n      swap2\n      0x20\n      add\n      swap2\n      jump(tag_46)\n    tag_47:\n      dup3\n      add\n      swap2\n      swap1\n      0x00\n      mstore\n      keccak256(0x00, 0x20)\n      swap1\n    tag_48:\n      dup2\n      sload\n      dup2\n      mstore\n      swap1\n      0x01\n      add\n      swap1\n      0x20\n      add\n      dup1\n      dup4\n      gt\n      tag_48\n      jumpi\n      dup3\n      swap1\n      sub\n      0x1f\n      and\n      dup3\n      add\n      swap2\n    tag_46:\n      pop\n      pop\n      pop\n      pop\n      pop\n      swap1\n      pop\n      jump(tag_41)\n        /* \"ifElse.sol\":214:361  if(_number == 15){... */\n    tag_42:\n        /* \"ifElse.sol\":319:349  text = \"Number is not correct\" */\n      mload(0x40)\n      dup1\n      0x40\n      add\n      0x40\n      mstore\n      dup1\n      0x15\n      dup2\n      mstore\n      0x20\n      add\n      0x4e756d626572206973206e6f7420636f72726563740000000000000000000000\n      dup2\n      mstore\n      pop\n        /* \"ifElse.sol\":319:323  text */\n      0x01\n        /* \"ifElse.sol\":319:349  text = \"Number is not correct\" */\n      swap1\n      dup2\n      tag_50\n      swap2\n      swap1\n      tag_33\n      jump\t// in\n    tag_50:\n        /* \"ifElse.sol\":312:349  return text = \"Number is not correct\" */\n      dup1\n      sload\n      tag_51\n      swap1\n      tag_25\n      jump\t// in\n    tag_51:\n      dup1\n      0x1f\n      add\n      0x20\n      dup1\n      swap2\n      div\n      mul\n      0x20\n      add\n      mload(0x40)\n      swap1\n      dup2\n      add\n      0x40\n      mstore\n      dup1\n      swap3\n      swap2\n      swap1\n      dup2\n      dup2\n      mstore\n      0x20\n      add\n      dup3\n      dup1\n      sload\n      tag_52\n      swap1\n      tag_25\n      jump\t// in\n    tag_52:\n      dup1\n      iszero\n      tag_53\n      jumpi\n      dup1\n      0x1f\n      lt\n      tag_54\n      jumpi\n      0x0100\n      dup1\n      dup4\n      sload\n      div\n      mul\n      dup4\n      mstore\n      swap2\n      0x20\n      add\n      swap2\n      jump(tag_53)\n    tag_54:\n      dup3\n      add\n      swap2\n      swap1\n      0x00\n      mstore\n      keccak256(0x00, 0x20)\n      swap1\n    tag_55:\n      dup2\n      sload\n      dup2\n      mstore\n      swap1\n      0x01\n      add\n      swap1\n      0x20\n      add\n      dup1\n      dup4\n      gt\n      tag_55\n      jumpi\n      dup3\n      swap1\n      sub\n      0x1f\n      and\n      dup3\n      add\n      swap2\n    tag_53:\n      pop\n      pop\n      pop\n      pop\n      pop\n      swap1\n      pop\n        /* \"ifElse.sol\":141:368  function getInput(uint _number) public returns (string memory){... */\n    tag_41:\n      swap2\n      swap1\n      pop\n      jump\t// out\n        /* \"#utility.yul\":7:106   */\n    tag_56:\n        /* \"#utility.yul\":59:65   */\n      0x00\n        /* \"#utility.yul\":93:98   */\n      dup2\n        /* \"#utility.yul\":87:99   */\n      mload\n        /* \"#utility.yul\":77:99   */\n      swap1\n      pop\n        /* \"#utility.yul\":7:106   */\n      swap2\n      swap1\n      pop\n      jump\t// out\n        /* \"#utility.yul\":112:281   */\n    tag_57:\n        /* \"#utility.yul\":196:207   */\n      0x00\n        /* \"#utility.yul\":230:236   */\n      dup3\n        /* \"#utility.yul\":225:228   */\n      dup3\n        /* \"#utility.yul\":218:237   */\n      mstore\n        /* \"#utility.yul\":270:274   */\n      0x20\n        /* \"#utility.yul\":265:268   */\n      dup3\n        /* \"#utility.yul\":261:275   */\n      add\n        /* \"#utility.yul\":246:275   */\n      swap1\n      pop\n        /* \"#utility.yul\":112:281   */\n      swap3\n      swap2\n      pop\n      pop\n      jump\t// out\n        /* \"#utility.yul\":287:426   */\n    tag_58:\n        /* \"#utility.yul\":376:382   */\n      dup3\n        /* \"#utility.yul\":371:374   */\n      dup2\n        /* \"#utility.yul\":366:369   */\n      dup4\n        /* \"#utility.yul\":360:383   */\n      mcopy\n        /* \"#utility.yul\":417:418   */\n      0x00\n        /* \"#utility.yul\":408:414   */\n      dup4\n        /* \"#utility.yul\":403:406   */\n      dup4\n        /* \"#utility.yul\":399:415   */\n      add\n        /* \"#utility.yul\":392:419   */\n      mstore\n        /* \"#utility.yul\":287:426   */\n      pop\n      pop\n      pop\n      jump\t// out\n        /* \"#utility.yul\":432:534   */\n    tag_59:\n        /* \"#utility.yul\":473:479   */\n      0x00\n        /* \"#utility.yul\":524:526   */\n      0x1f\n        /* \"#utility.yul\":520:527   */\n      not\n        /* \"#utility.yul\":515:517   */\n      0x1f\n        /* \"#utility.yul\":508:513   */\n      dup4\n        /* \"#utility.yul\":504:518   */\n      add\n        /* \"#utility.yul\":500:528   */\n      and\n        /* \"#utility.yul\":490:528   */\n      swap1\n      pop\n        /* \"#utility.yul\":432:534   */\n      swap2\n      swap1\n      pop\n      jump\t// out\n        /* \"#utility.yul\":540:917   */\n    tag_60:\n        /* \"#utility.yul\":628:631   */\n      0x00\n        /* \"#utility.yul\":656:695   */\n      tag_91\n        /* \"#utility.yul\":689:694   */\n      dup3\n        /* \"#utility.yul\":656:695   */\n      tag_56\n      jump\t// in\n    tag_91:\n        /* \"#utility.yul\":711:782   */\n      tag_92\n        /* \"#utility.yul\":775:781   */\n      dup2\n        /* \"#utility.yul\":770:773   */\n      dup6\n        /* \"#utility.yul\":711:782   */\n      tag_57\n      jump\t// in\n    tag_92:\n        /* \"#utility.yul\":704:782   */\n      swap4\n      pop\n        /* \"#utility.yul\":791:856   */\n      tag_93\n        /* \"#utility.yul\":849:855   */\n      dup2\n        /* \"#utility.yul\":844:847   */\n      dup6\n        /* \"#utility.yul\":837:841   */\n      0x20\n        /* \"#utility.yul\":830:835   */\n      dup7\n        /* \"#utility.yul\":826:842   */\n      add\n        /* \"#utility.yul\":791:856   */\n      tag_58\n      jump\t// in\n    tag_93:\n        /* \"#utility.yul\":881:910   */\n      tag_94\n        /* \"#utility.yul\":903:909   */\n      dup2\n        /* \"#utility.yul\":881:910   */\n      tag_59\n      jump\t// in\n    tag_94:\n        /* \"#utility.yul\":876:879   */\n      dup5\n        /* \"#utility.yul\":872:911   */\n      add\n        /* \"#utility.yul\":865:911   */\n      swap2\n      pop\n        /* \"#utility.yul\":632:917   */\n      pop\n        /* \"#utility.yul\":540:917   */\n      swap3\n      swap2\n      pop\n      pop\n      jump\t// out\n        /* \"#utility.yul\":923:1236   */\n    tag_10:\n        /* \"#utility.yul\":1036:1040   */\n      0x00\n        /* \"#utility.yul\":1074:1076   */\n      0x20\n        /* \"#utility.yul\":1063:1072   */\n      dup3\n        /* \"#utility.yul\":1059:1077   */\n      add\n        /* \"#utility.yul\":1051:1077   */\n      swap1\n      pop\n        /* \"#utility.yul\":1123:1132   */\n      dup2\n        /* \"#utility.yul\":1117:1121   */\n      dup2\n        /* \"#utility.yul\":1113:1133   */\n      sub\n        /* \"#utility.yul\":1109:1110   */\n      0x00\n        /* \"#utility.yul\":1098:1107   */\n      dup4\n        /* \"#utility.yul\":1094:1111   */\n      add\n        /* \"#utility.yul\":1087:1134   */\n      mstore\n        /* \"#utility.yul\":1151:1229   */\n      tag_96\n        /* \"#utility.yul\":1224:1228   */\n      dup2\n        /* \"#utility.yul\":1215:1221   */\n      dup5\n        /* \"#utility.yul\":1151:1229   */\n      tag_60\n      jump\t// in\n    tag_96:\n        /* \"#utility.yul\":1143:1229   */\n      swap1\n      pop\n        /* \"#utility.yul\":923:1236   */\n      swap3\n      swap2\n      pop\n      pop\n      jump\t// out\n        /* \"#utility.yul\":1323:1440   */\n    tag_62:\n        /* \"#utility.yul\":1432:1433   */\n      0x00\n        /* \"#utility.yul\":1429:1430   */\n      dup1\n        /* \"#utility.yul\":1422:1434   */\n      revert\n        /* \"#utility.yul\":1569:1646   */\n    tag_64:\n        /* \"#utility.yul\":1606:1613   */\n      0x00\n        /* \"#utility.yul\":1635:1640   */\n      dup2\n        /* \"#utility.yul\":1624:1640   */\n      swap1\n      pop\n        /* \"#utility.yul\":1569:1646   */\n      swap2\n      swap1\n      pop\n      jump\t// out\n        /* \"#utility.yul\":1652:1774   */\n    tag_65:\n        /* \"#utility.yul\":1725:1749   */\n      tag_102\n        /* \"#utility.yul\":1743:1748   */\n      dup2\n        /* \"#utility.yul\":1725:1749   */\n      tag_64\n      jump\t// in\n    tag_102:\n        /* \"#utility.yul\":1718:1723   */\n      dup2\n        /* \"#utility.yul\":1715:1750   */\n      eq\n        /* \"#utility.yul\":1705:1768   */\n      tag_103\n      jumpi\n        /* \"#utility.yul\":1764:1765   */\n      0x00\n        /* \"#utility.yul\":1761:1762   */\n      dup1\n        /* \"#utility.yul\":1754:1766   */\n      revert\n        /* \"#utility.yul\":1705:1768   */\n    tag_103:\n        /* \"#utility.yul\":1652:1774   */\n      pop\n      jump\t// out\n        /* \"#utility.yul\":1780:1919   */\n    tag_66:\n        /* \"#utility.yul\":1826:1831   */\n      0x00\n        /* \"#utility.yul\":1864:1870   */\n      dup2\n        /* \"#utility.yul\":1851:1871   */\n      calldataload\n        /* \"#utility.yul\":1842:1871   */\n      swap1\n      pop\n        /* \"#utility.yul\":1880:1913   */\n      tag_105\n        /* \"#utility.yul\":1907:1912   */\n      dup2\n        /* \"#utility.yul\":1880:1913   */\n      tag_65\n      jump\t// in\n    tag_105:\n        /* \"#utility.yul\":1780:1919   */\n      swap3\n      swap2\n      pop\n      pop\n      jump\t// out\n        /* \"#utility.yul\":1925:2254   */\n    tag_13:\n        /* \"#utility.yul\":1984:1990   */\n      0x00\n        /* \"#utility.yul\":2033:2035   */\n      0x20\n        /* \"#utility.yul\":2021:2030   */\n      dup3\n        /* \"#utility.yul\":2012:2019   */\n      dup5\n        /* \"#utility.yul\":2008:2031   */\n      sub\n        /* \"#utility.yul\":2004:2036   */\n      slt\n        /* \"#utility.yul\":2001:2120   */\n      iszero\n      tag_107\n      jumpi\n        /* \"#utility.yul\":2039:2118   */\n      tag_108\n      tag_62\n      jump\t// in\n    tag_108:\n        /* \"#utility.yul\":2001:2120   */\n    tag_107:\n        /* \"#utility.yul\":2159:2160   */\n      0x00\n        /* \"#utility.yul\":2184:2237   */\n      tag_109\n        /* \"#utility.yul\":2229:2236   */\n      dup5\n        /* \"#utility.yul\":2220:2226   */\n      dup3\n        /* \"#utility.yul\":2209:2218   */\n      dup6\n        /* \"#utility.yul\":2205:2227   */\n      add\n        /* \"#utility.yul\":2184:2237   */\n      tag_66\n      jump\t// in\n    tag_109:\n        /* \"#utility.yul\":2174:2237   */\n      swap2\n      pop\n        /* \"#utility.yul\":2130:2247   */\n      pop\n        /* \"#utility.yul\":1925:2254   */\n      swap3\n      swap2\n      pop\n      pop\n      jump\t// out\n        /* \"#utility.yul\":2260:2378   */\n    tag_67:\n        /* \"#utility.yul\":2347:2371   */\n      tag_111\n        /* \"#utility.yul\":2365:2370   */\n      dup2\n        /* \"#utility.yul\":2347:2371   */\n      tag_64\n      jump\t// in\n    tag_111:\n        /* \"#utility.yul\":2342:2345   */\n      dup3\n        /* \"#utility.yul\":2335:2372   */\n      mstore\n        /* \"#utility.yul\":2260:2378   */\n      pop\n      pop\n      jump\t// out\n        /* \"#utility.yul\":2384:2606   */\n    tag_19:\n        /* \"#utility.yul\":2477:2481   */\n      0x00\n        /* \"#utility.yul\":2515:2517   */\n      0x20\n        /* \"#utility.yul\":2504:2513   */\n      dup3\n        /* \"#utility.yul\":2500:2518   */\n      add\n        /* \"#utility.yul\":2492:2518   */\n      swap1\n      pop\n        /* \"#utility.yul\":2528:2599   */\n      tag_113\n        /* \"#utility.yul\":2596:2597   */\n      0x00\n        /* \"#utility.yul\":2585:2594   */\n      dup4\n        /* \"#utility.yul\":2581:2598   */\n      add\n        /* \"#utility.yul\":2572:2578   */\n      dup5\n        /* \"#utility.yul\":2528:2599   */\n      tag_67\n      jump\t// in\n    tag_113:\n        /* \"#utility.yul\":2384:2606   */\n      swap3\n      swap2\n      pop\n      pop\n      jump\t// out\n        /* \"#utility.yul\":2612:2792   */\n    tag_68:\n        /* \"#utility.yul\":2660:2737   */\n      0x4e487b7100000000000000000000000000000000000000000000000000000000\n        /* \"#utility.yul\":2657:2658   */\n      0x00\n        /* \"#utility.yul\":2650:2738   */\n      mstore\n        /* \"#utility.yul\":2757:2761   */\n      0x22\n        /* \"#utility.yul\":2754:2755   */\n      0x04\n        /* \"#utility.yul\":2747:2762   */\n      mstore\n        /* \"#utility.yul\":2781:2785   */\n      0x24\n        /* \"#utility.yul\":2778:2779   */\n      0x00\n        /* \"#utility.yul\":2771:2786   */\n      revert\n        /* \"#utility.yul\":2798:3118   */\n    tag_25:\n        /* \"#utility.yul\":2842:2848   */\n      0x00\n        /* \"#utility.yul\":2879:2880   */\n      0x02\n        /* \"#utility.yul\":2873:2877   */\n      dup3\n        /* \"#utility.yul\":2869:2881   */\n      div\n        /* \"#utility.yul\":2859:2881   */\n      swap1\n      pop\n        /* \"#utility.yul\":2926:2927   */\n      0x01\n        /* \"#utility.yul\":2920:2924   */\n      dup3\n        /* \"#utility.yul\":2916:2928   */\n      and\n        /* \"#utility.yul\":2947:2965   */\n      dup1\n        /* \"#utility.yul\":2937:3018   */\n      tag_116\n      jumpi\n        /* \"#utility.yul\":3003:3007   */\n      0x7f\n        /* \"#utility.yul\":2995:3001   */\n      dup3\n        /* \"#utility.yul\":2991:3008   */\n      and\n        /* \"#utility.yul\":2981:3008   */\n      swap2\n      pop\n        /* \"#utility.yul\":2937:3018   */\n    tag_116:\n        /* \"#utility.yul\":3065:3067   */\n      0x20\n        /* \"#utility.yul\":3057:3063   */\n      dup3\n        /* \"#utility.yul\":3054:3068   */\n      lt\n        /* \"#utility.yul\":3034:3052   */\n      dup2\n        /* \"#utility.yul\":3031:3069   */\n      sub\n        /* \"#utility.yul\":3028:3112   */\n      tag_117\n      jumpi\n        /* \"#utility.yul\":3084:3102   */\n      tag_118\n      tag_68\n      jump\t// in\n    tag_118:\n        /* \"#utility.yul\":3028:3112   */\n    tag_117:\n        /* \"#utility.yul\":2849:3118   */\n      pop\n        /* \"#utility.yul\":2798:3118   */\n      swap2\n      swap1\n      pop\n      jump\t// out\n        /* \"#utility.yul\":3124:3304   */\n    tag_69:\n        /* \"#utility.yul\":3172:3249   */\n      0x4e487b7100000000000000000000000000000000000000000000000000000000\n        /* \"#utility.yul\":3169:3170   */\n      0x00\n        /* \"#utility.yul\":3162:3250   */\n      mstore\n        /* \"#utility.yul\":3269:3273   */\n      0x41\n        /* \"#utility.yul\":3266:3267   */\n      0x04\n        /* \"#utility.yul\":3259:3274   */\n      mstore\n        /* \"#utility.yul\":3293:3297   */\n      0x24\n        /* \"#utility.yul\":3290:3291   */\n      0x00\n        /* \"#utility.yul\":3283:3298   */\n      revert\n        /* \"#utility.yul\":3310:3451   */\n    tag_70:\n        /* \"#utility.yul\":3359:3363   */\n      0x00\n        /* \"#utility.yul\":3382:3385   */\n      dup2\n        /* \"#utility.yul\":3374:3385   */\n      swap1\n      pop\n        /* \"#utility.yul\":3405:3408   */\n      dup2\n        /* \"#utility.yul\":3402:3403   */\n      0x00\n        /* \"#utility.yul\":3395:3409   */\n      mstore\n        /* \"#utility.yul\":3439:3443   */\n      0x20\n        /* \"#utility.yul\":3436:3437   */\n      0x00\n        /* \"#utility.yul\":3426:3444   */\n      keccak256\n        /* \"#utility.yul\":3418:3444   */\n      swap1\n      pop\n        /* \"#utility.yul\":3310:3451   */\n      swap2\n      swap1\n      pop\n      jump\t// out\n        /* \"#utility.yul\":3457:3550   */\n    tag_71:\n        /* \"#utility.yul\":3494:3500   */\n      0x00\n        /* \"#utility.yul\":3541:3543   */\n      0x20\n        /* \"#utility.yul\":3536:3538   */\n      0x1f\n        /* \"#utility.yul\":3529:3534   */\n      dup4\n        /* \"#utility.yul\":3525:3539   */\n      add\n        /* \"#utility.yul\":3521:3544   */\n      div\n        /* \"#utility.yul\":3511:3544   */\n      swap1\n      pop\n        /* \"#utility.yul\":3457:3550   */\n      swap2\n      swap1\n      pop\n      jump\t// out\n        /* \"#utility.yul\":3556:3663   */\n    tag_72:\n        /* \"#utility.yul\":3600:3608   */\n      0x00\n        /* \"#utility.yul\":3650:3655   */\n      dup3\n        /* \"#utility.yul\":3644:3648   */\n      dup3\n        /* \"#utility.yul\":3640:3656   */\n      shl\n        /* \"#utility.yul\":3619:3656   */\n      swap1\n      pop\n        /* \"#utility.yul\":3556:3663   */\n      swap3\n      swap2\n      pop\n      pop\n      jump\t// out\n        /* \"#utility.yul\":3669:4062   */\n    tag_73:\n        /* \"#utility.yul\":3738:3744   */\n      0x00\n        /* \"#utility.yul\":3788:3789   */\n      0x08\n        /* \"#utility.yul\":3776:3786   */\n      dup4\n        /* \"#utility.yul\":3772:3790   */\n      mul\n        /* \"#utility.yul\":3811:3908   */\n      tag_124\n        /* \"#utility.yul\":3841:3907   */\n      0xffffffffffffffffffffffffffffffffffffffffffffffffffffffffffffffff\n        /* \"#utility.yul\":3830:3839   */\n      dup3\n        /* \"#utility.yul\":3811:3908   */\n      tag_72\n      jump\t// in\n    tag_124:\n        /* \"#utility.yul\":3929:3968   */\n      tag_125\n        /* \"#utility.yul\":3959:3967   */\n      dup7\n        /* \"#utility.yul\":3948:3957   */\n      dup4\n        /* \"#utility.yul\":3929:3968   */\n      tag_72\n      jump\t// in\n    tag_125:\n        /* \"#utility.yul\":3917:3968   */\n      swap6\n      pop\n        /* \"#utility.yul\":4001:4005   */\n      dup1\n        /* \"#utility.yul\":3997:4006   */\n      not\n        /* \"#utility.yul\":3990:3995   */\n      dup5\n        /* \"#utility.yul\":3986:4007   */\n      and\n        /* \"#utility.yul\":3977:4007   */\n      swap4\n      pop\n        /* \"#utility.yul\":4050:4054   */\n      dup1\n        /* \"#utility.yul\":4040:4048   */\n      dup7\n        /* \"#utility.yul\":4036:4055   */\n      and\n        /* \"#utility.yul\":4029:4034   */\n      dup5\n        /* \"#utility.yul\":4026:4056   */\n      or\n        /* \"#utility.yul\":4016:4056   */\n      swap3\n      pop\n        /* \"#utility.yul\":3745:4062   */\n      pop\n      pop\n        /* \"#utility.yul\":3669:4062   */\n      swap4\n      swap3\n      pop\n      pop\n      pop\n      jump\t// out\n        /* \"#utility.yul\":4068:4128   */\n    tag_74:\n        /* \"#utility.yul\":4096:4099   */\n      0x00\n        /* \"#utility.yul\":4117:4122   */\n      dup2\n        /* \"#utility.yul\":4110:4122   */\n      swap1\n      pop\n        /* \"#utility.yul\":4068:4128   */\n      swap2\n      swap1\n      pop\n      jump\t// out\n        /* \"#utility.yul\":4134:4276   */\n    tag_75:\n        /* \"#utility.yul\":4184:4193   */\n      0x00\n        /* \"#utility.yul\":4217:4270   */\n      tag_128\n        /* \"#utility.yul\":4235:4269   */\n      tag_129\n        /* \"#utility.yul\":4244:4268   */\n      tag_130\n        /* \"#utility.yul\":4262:4267   */\n      dup5\n        /* \"#utility.yul\":4244:4268   */\n      tag_64\n      jump\t// in\n    tag_130:\n        /* \"#utility.yul\":4235:4269   */\n      tag_74\n      jump\t// in\n    tag_129:\n        /* \"#utility.yul\":4217:4270   */\n      tag_64\n      jump\t// in\n    tag_128:\n        /* \"#utility.yul\":4204:4270   */\n      swap1\n      pop\n        /* \"#utility.yul\":4134:4276   */\n      swap2\n      swap1\n      pop\n      jump\t// out\n        /* \"#utility.yul\":4282:4357   */\n    tag_76:\n        /* \"#utility.yul\":4325:4328   */\n      0x00\n        /* \"#utility.yul\":4346:4351   */\n      dup2\n        /* \"#utility.yul\":4339:4351   */\n      swap1\n      pop\n        /* \"#utility.yul\":4282:4357   */\n      swap2\n      swap1\n      pop\n      jump\t// out\n        /* \"#utility.yul\":4363:4632   */\n    tag_77:\n        /* \"#utility.yul\":4473:4512   */\n      tag_133\n        /* \"#utility.yul\":4504:4511   */\n      dup4\n        /* \"#utility.yul\":4473:4512   */\n      tag_75\n      jump\t// in\n    tag_133:\n        /* \"#utility.yul\":4534:4625   */\n      tag_134\n        /* \"#utility.yul\":4583:4624   */\n      tag_135\n        /* \"#utility.yul\":4607:4623   */\n      dup3\n        /* \"#utility.yul\":4583:4624   */\n      tag_76\n      jump\t// in\n    tag_135:\n        /* \"#utility.yul\":4575:4581   */\n      dup5\n        /* \"#utility.yul\":4568:4572   */\n      dup5\n        /* \"#utility.yul\":4562:4573   */\n      sload\n        /* \"#utility.yul\":4534:4625   */\n      tag_73\n      jump\t// in\n    tag_134:\n        /* \"#utility.yul\":4528:4532   */\n      dup3\n        /* \"#utility.yul\":4521:4626   */\n      sstore\n        /* \"#utility.yul\":4439:4632   */\n      pop\n        /* \"#utility.yul\":4363:4632   */\n      pop\n      pop\n      pop\n      jump\t// out\n        /* \"#utility.yul\":4638:4711   */\n    tag_78:\n        /* \"#utility.yul\":4683:4686   */\n      0x00\n        /* \"#utility.yul\":4638:4711   */\n      swap1\n      jump\t// out\n        /* \"#utility.yul\":4717:4906   */\n    tag_79:\n        /* \"#utility.yul\":4794:4826   */\n      tag_138\n      tag_78\n      jump\t// in\n    tag_138:\n        /* \"#utility.yul\":4835:4900   */\n      tag_139\n        /* \"#utility.yul\":4893:4899   */\n      dup2\n        /* \"#utility.yul\":4885:4891   */\n      dup5\n        /* \"#utility.yul\":4879:4883   */\n      dup5\n        /* \"#utility.yul\":4835:4900   */\n      tag_77\n      jump\t// in\n    tag_139:\n        /* \"#utility.yul\":4770:4906   */\n      pop\n        /* \"#utility.yul\":4717:4906   */\n      pop\n      pop\n      jump\t// out\n        /* \"#utility.yul\":4912:5098   */\n    tag_80:\n        /* \"#utility.yul\":4972:5092   */\n    tag_141:\n        /* \"#utility.yul\":4989:4992   */\n      dup2\n        /* \"#utility.yul\":4982:4987   */\n      dup2\n        /* \"#utility.yul\":4979:4993   */\n      lt\n        /* \"#utility.yul\":4972:5092   */\n      iszero\n      tag_143\n      jumpi\n        /* \"#utility.yul\":5043:5082   */\n      tag_144\n        /* \"#utility.yul\":5080:5081   */\n      0x00\n        /* \"#utility.yul\":5073:5078   */\n      dup3\n        /* \"#utility.yul\":5043:5082   */\n      tag_79\n      jump\t// in\n    tag_144:\n        /* \"#utility.yul\":5016:5017   */\n      0x01\n        /* \"#utility.yul\":5009:5014   */\n      dup2\n        /* \"#utility.yul\":5005:5018   */\n      add\n        /* \"#utility.yul\":4996:5018   */\n      swap1\n      pop\n        /* \"#utility.yul\":4972:5092   */\n      jump(tag_141)\n    tag_143:\n        /* \"#utility.yul\":4912:5098   */\n      pop\n      pop\n      jump\t// out\n        /* \"#utility.yul\":5104:5647   */\n    tag_81:\n        /* \"#utility.yul\":5205:5207   */\n      0x1f\n        /* \"#utility.yul\":5200:5203   */\n      dup3\n        /* \"#utility.yul\":5197:5208   */\n      gt\n        /* \"#utility.yul\":5194:5640   */\n      iszero\n      tag_146\n      jumpi\n        /* \"#utility.yul\":5239:5277   */\n      tag_147\n        /* \"#utility.yul\":5271:5276   */\n      dup2\n        /* \"#utility.yul\":5239:5277   */\n      tag_70\n      jump\t// in\n    tag_147:\n        /* \"#utility.yul\":5323:5352   */\n      tag_148\n        /* \"#utility.yul\":5341:5351   */\n      dup5\n        /* \"#utility.yul\":5323:5352   */\n      tag_71\n      jump\t// in\n    tag_148:\n        /* \"#utility.yul\":5313:5321   */\n      dup2\n        /* \"#utility.yul\":5309:5353   */\n      add\n        /* \"#utility.yul\":5506:5508   */\n      0x20\n        /* \"#utility.yul\":5494:5504   */\n      dup6\n        /* \"#utility.yul\":5491:5509   */\n      lt\n        /* \"#utility.yul\":5488:5537   */\n      iszero\n      tag_149\n      jumpi\n        /* \"#utility.yul\":5527:5535   */\n      dup2\n        /* \"#utility.yul\":5512:5535   */\n      swap1\n      pop\n        /* \"#utility.yul\":5488:5537   */\n    tag_149:\n        /* \"#utility.yul\":5550:5630   */\n      tag_150\n        /* \"#utility.yul\":5606:5628   */\n      tag_151\n        /* \"#utility.yul\":5624:5627   */\n      dup6\n        /* \"#utility.yul\":5606:5628   */\n      tag_71\n      jump\t// in\n    tag_151:\n        /* \"#utility.yul\":5596:5604   */\n      dup4\n        /* \"#utility.yul\":5592:5629   */\n      add\n        /* \"#utility.yul\":5579:5590   */\n      dup3\n        /* \"#utility.yul\":5550:5630   */\n      tag_80\n      jump\t// in\n    tag_150:\n        /* \"#utility.yul\":5209:5640   */\n      pop\n      pop\n        /* \"#utility.yul\":5194:5640   */\n    tag_146:\n        /* \"#utility.yul\":5104:5647   */\n      pop\n      pop\n      pop\n      jump\t// out\n        /* \"#utility.yul\":5653:5770   */\n    tag_82:\n        /* \"#utility.yul\":5707:5715   */\n      0x00\n        /* \"#utility.yul\":5757:5762   */\n      dup3\n        /* \"#utility.yul\":5751:5755   */\n      dup3\n        /* \"#utility.yul\":5747:5763   */\n      shr\n        /* \"#utility.yul\":5726:5763   */\n      swap1\n      pop\n        /* \"#utility.yul\":5653:5770   */\n      swap3\n      swap2\n      pop\n      pop\n      jump\t// out\n        /* \"#utility.yul\":5776:5945   */\n    tag_83:\n        /* \"#utility.yul\":5820:5826   */\n      0x00\n        /* \"#utility.yul\":5853:5904   */\n      tag_154\n        /* \"#utility.yul\":5901:5902   */\n      0x00\n        /* \"#utility.yul\":5897:5903   */\n      not\n        /* \"#utility.yul\":5889:5894   */\n      dup5\n        /* \"#utility.yul\":5886:5887   */\n      0x08\n        /* \"#utility.yul\":5882:5895   */\n      mul\n        /* \"#utility.yul\":5853:5904   */\n      tag_82\n      jump\t// in\n    tag_154:\n        /* \"#utility.yul\":5849:5905   */\n      not\n        /* \"#utility.yul\":5934:5938   */\n      dup1\n        /* \"#utility.yul\":5928:5932   */\n      dup4\n        /* \"#utility.yul\":5924:5939   */\n      and\n        /* \"#utility.yul\":5914:5939   */\n      swap2\n      pop\n        /* \"#utility.yul\":5827:5945   */\n      pop\n        /* \"#utility.yul\":5776:5945   */\n      swap3\n      swap2\n      pop\n      pop\n      jump\t// out\n        /* \"#utility.yul\":5950:6245   */\n    tag_84:\n        /* \"#utility.yul\":6026:6030   */\n      0x00\n        /* \"#utility.yul\":6172:6201   */\n      tag_156\n        /* \"#utility.yul\":6197:6200   */\n      dup4\n        /* \"#utility.yul\":6191:6195   */\n      dup4\n        /* \"#utility.yul\":6172:6201   */\n      tag_83\n      jump\t// in\n    tag_156:\n        /* \"#utility.yul\":6164:6201   */\n      swap2\n      pop\n        /* \"#utility.yul\":6234:6237   */\n      dup3\n        /* \"#utility.yul\":6231:6232   */\n      0x02\n        /* \"#utility.yul\":6227:6238   */\n      mul\n        /* \"#utility.yul\":6221:6225   */\n      dup3\n        /* \"#utility.yul\":6218:6239   */\n      or\n        /* \"#utility.yul\":6210:6239   */\n      swap1\n      pop\n        /* \"#utility.yul\":5950:6245   */\n      swap3\n      swap2\n      pop\n      pop\n      jump\t// out\n        /* \"#utility.yul\":6250:7645   */\n    tag_33:\n        /* \"#utility.yul\":6367:6404   */\n      tag_158\n        /* \"#utility.yul\":6400:6403   */\n      dup3\n        /* \"#utility.yul\":6367:6404   */\n      tag_56\n      jump\t// in\n    tag_158:\n        /* \"#utility.yul\":6469:6487   */\n      0xffffffffffffffff\n        /* \"#utility.yul\":6461:6467   */\n      dup2\n        /* \"#utility.yul\":6458:6488   */\n      gt\n        /* \"#utility.yul\":6455:6511   */\n      iszero\n      tag_159\n      jumpi\n        /* \"#utility.yul\":6491:6509   */\n      tag_160\n      tag_69\n      jump\t// in\n    tag_160:\n        /* \"#utility.yul\":6455:6511   */\n    tag_159:\n        /* \"#utility.yul\":6535:6573   */\n      tag_161\n        /* \"#utility.yul\":6567:6571   */\n      dup3\n        /* \"#utility.yul\":6561:6572   */\n      sload\n        /* \"#utility.yul\":6535:6573   */\n      tag_25\n      jump\t// in\n    tag_161:\n        /* \"#utility.yul\":6620:6687   */\n      tag_162\n        /* \"#utility.yul\":6680:6686   */\n      dup3\n        /* \"#utility.yul\":6672:6678   */\n      dup3\n        /* \"#utility.yul\":6666:6670   */\n      dup6\n        /* \"#utility.yul\":6620:6687   */\n      tag_81\n      jump\t// in\n    tag_162:\n        /* \"#utility.yul\":6714:6715   */\n      0x00\n        /* \"#utility.yul\":6738:6742   */\n      0x20\n        /* \"#utility.yul\":6725:6742   */\n      swap1\n      pop\n        /* \"#utility.yul\":6770:6772   */\n      0x1f\n        /* \"#utility.yul\":6762:6768   */\n      dup4\n        /* \"#utility.yul\":6759:6773   */\n      gt\n        /* \"#utility.yul\":6787:6788   */\n      0x01\n        /* \"#utility.yul\":6782:7400   */\n      dup2\n      eq\n      tag_164\n      jumpi\n        /* \"#utility.yul\":7444:7445   */\n      0x00\n        /* \"#utility.yul\":7461:7467   */\n      dup5\n        /* \"#utility.yul\":7458:7535   */\n      iszero\n      tag_165\n      jumpi\n        /* \"#utility.yul\":7510:7519   */\n      dup3\n        /* \"#utility.yul\":7505:7508   */\n      dup8\n        /* \"#utility.yul\":7501:7520   */\n      add\n        /* \"#utility.yul\":7495:7521   */\n      mload\n        /* \"#utility.yul\":7486:7521   */\n      swap1\n      pop\n        /* \"#utility.yul\":7458:7535   */\n    tag_165:\n        /* \"#utility.yul\":7561:7628   */\n      tag_166\n        /* \"#utility.yul\":7621:7627   */\n      dup6\n        /* \"#utility.yul\":7614:7619   */\n      dup3\n        /* \"#utility.yul\":7561:7628   */\n      tag_84\n      jump\t// in\n    tag_166:\n        /* \"#utility.yul\":7555:7559   */\n      dup7\n        /* \"#utility.yul\":7548:7629   */\n      sstore\n        /* \"#utility.yul\":7417:7639   */\n      pop\n        /* \"#utility.yul\":6752:7639   */\n      jump(tag_163)\n        /* \"#utility.yul\":6782:7400   */\n    tag_164:\n        /* \"#utility.yul\":6834:6838   */\n      0x1f\n        /* \"#utility.yul\":6830:6839   */\n      not\n        /* \"#utility.yul\":6822:6828   */\n      dup5\n        /* \"#utility.yul\":6818:6840   */\n      and\n        /* \"#utility.yul\":6868:6905   */\n      tag_167\n        /* \"#utility.yul\":6900:6904   */\n      dup7\n        /* \"#utility.yul\":6868:6905   */\n      tag_70\n      jump\t// in\n    tag_167:\n        /* \"#utility.yul\":6927:6928   */\n      0x00\n        /* \"#utility.yul\":6941:7149   */\n    tag_168:\n        /* \"#utility.yul\":6955:6962   */\n      dup3\n        /* \"#utility.yul\":6952:6953   */\n      dup2\n        /* \"#utility.yul\":6949:6963   */\n      lt\n        /* \"#utility.yul\":6941:7149   */\n      iszero\n      tag_170\n      jumpi\n        /* \"#utility.yul\":7034:7043   */\n      dup5\n        /* \"#utility.yul\":7029:7032   */\n      dup10\n        /* \"#utility.yul\":7025:7044   */\n      add\n        /* \"#utility.yul\":7019:7045   */\n      mload\n        /* \"#utility.yul\":7011:7017   */\n      dup3\n        /* \"#utility.yul\":7004:7046   */\n      sstore\n        /* \"#utility.yul\":7085:7086   */\n      0x01\n        /* \"#utility.yul\":7077:7083   */\n      dup3\n        /* \"#utility.yul\":7073:7087   */\n      add\n        /* \"#utility.yul\":7063:7087   */\n      swap2\n      pop\n        /* \"#utility.yul\":7132:7134   */\n      0x20\n        /* \"#utility.yul\":7121:7130   */\n      dup6\n        /* \"#utility.yul\":7117:7135   */\n      add\n        /* \"#utility.yul\":7104:7135   */\n      swap5\n      pop\n        /* \"#utility.yul\":6978:6982   */\n      0x20\n        /* \"#utility.yul\":6975:6976   */\n      dup2\n        /* \"#utility.yul\":6971:6983   */\n      add\n        /* \"#utility.yul\":6966:6983   */\n      swap1\n      pop\n        /* \"#utility.yul\":6941:7149   */\n      jump(tag_168)\n    tag_170:\n        /* \"#utility.yul\":7177:7183   */\n      dup7\n        /* \"#utility.yul\":7168:7175   */\n      dup4\n        /* \"#utility.yul\":7165:7184   */\n      lt\n        /* \"#utility.yul\":7162:7341   */\n      iszero\n      tag_171\n      jumpi\n        /* \"#utility.yul\":7235:7244   */\n      dup5\n        /* \"#utility.yul\":7230:7233   */\n      dup10\n        /* \"#utility.yul\":7226:7245   */\n      add\n        /* \"#utility.yul\":7220:7246   */\n      mload\n        /* \"#utility.yul\":7278:7326   */\n      tag_172\n        /* \"#utility.yul\":7320:7324   */\n      0x1f\n        /* \"#utility.yul\":7312:7318   */\n      dup10\n        /* \"#utility.yul\":7308:7325   */\n      and\n        /* \"#utility.yul\":7297:7306   */\n      dup3\n        /* \"#utility.yul\":7278:7326   */\n      tag_83\n      jump\t// in\n    tag_172:\n        /* \"#utility.yul\":7270:7276   */\n      dup4\n        /* \"#utility.yul\":7263:7327   */\n      sstore\n        /* \"#utility.yul\":7185:7341   */\n      pop\n        /* \"#utility.yul\":7162:7341   */\n    tag_171:\n        /* \"#utility.yul\":7387:7388   */\n      0x01\n        /* \"#utility.yul\":7383:7384   */\n      0x02\n        /* \"#utility.yul\":7375:7381   */\n      dup9\n        /* \"#utility.yul\":7371:7385   */\n      mul\n        /* \"#utility.yul\":7367:7389   */\n      add\n        /* \"#utility.yul\":7361:7365   */\n      dup9\n        /* \"#utility.yul\":7354:7390   */\n      sstore\n        /* \"#utility.yul\":6789:7400   */\n      pop\n      pop\n      pop\n        /* \"#utility.yul\":6752:7639   */\n    tag_163:\n      pop\n        /* \"#utility.yul\":6342:7645   */\n      pop\n      pop\n      pop\n        /* \"#utility.yul\":6250:7645   */\n      pop\n      pop\n      jump\t// out\n\n    auxdata: 0xa2646970667358221220f1af3d234717823763629e96f5b00efb30b9d6a35d626d655d95bf8ed07bb96364736f6c634300081a0033\n}\n",
				"bytecode": {
					"linkReferences": {},
					"object": "6080604052600f5f553480156012575f80fd5b50610896806100205f395ff3fe608060405234801561000f575f80fd5b506004361061004a575f3560e01c80631f1bd6921461004e5780632dbceaff1461006c5780638381f58a1461009c578063a459600e146100ba575b5f80fd5b6100566100ea565b60405161006391906104c0565b60405180910390f35b61008660048036038101906100819190610517565b610176565b60405161009391906104c0565b60405180910390f35b6100a461029c565b6040516100b19190610551565b60405180910390f35b6100d460048036038101906100cf9190610517565b6102a1565b6040516100e191906104c0565b60405180910390f35b600180546100f790610597565b80601f016020809104026020016040519081016040528092919081815260200182805461012390610597565b801561016e5780601f106101455761010080835404028352916020019161016e565b820191905f5260205f20905b81548152906001019060200180831161015157829003601f168201915b505050505081565b6060600f82146101c9576040518060400160405280601581526020017f4e756d626572206973206e6f7420636f72726563740000000000000000000000815250600190816101c49190610791565b61020e565b6040518060400160405280601181526020017f4e756d62657220697320636f72726563740000000000000000000000000000008152506001908161020d9190610791565b5b805461021990610597565b80601f016020809104026020016040519081016040528092919081815260200182805461024590610597565b80156102905780601f1061026757610100808354040283529160200191610290565b820191905f5260205f20905b81548152906001019060200180831161027357829003601f168201915b50505050509050919050565b5f5481565b6060600f820361037d576040518060400160405280601181526020017f4e756d62657220697320636f7272656374000000000000000000000000000000815250600190816102ef9190610791565b80546102fa90610597565b80601f016020809104026020016040519081016040528092919081815260200182805461032690610597565b80156103715780601f1061034857610100808354040283529160200191610371565b820191905f5260205f20905b81548152906001019060200180831161035457829003601f168201915b5050505050905061044b565b6040518060400160405280601581526020017f4e756d626572206973206e6f7420636f72726563740000000000000000000000815250600190816103c19190610791565b80546103cc90610597565b80601f01602080910402602001604051908101604052809291908181526020018280546103f890610597565b80156104435780601f1061041a57610100808354040283529160200191610443565b820191905f5260205f20905b81548152906001019060200180831161042657829003601f168201915b505050505090505b919050565b5f81519050919050565b5f82825260208201905092915050565b8281835e5f83830152505050565b5f601f19601f8301169050919050565b5f61049282610450565b61049c818561045a565b93506104ac81856020860161046a565b6104b581610478565b840191505092915050565b5f6020820190508181035f8301526104d88184610488565b905092915050565b5f80fd5b5f819050919050565b6104f6816104e4565b8114610500575f80fd5b50565b5f81359050610511816104ed565b92915050565b5f6020828403121561052c5761052b6104e0565b5b5f61053984828501610503565b91505092915050565b61054b816104e4565b82525050565b5f6020820190506105645f830184610542565b92915050565b7f4e487b71000000000000000000000000000000000000000000000000000000005f52602260045260245ffd5b5f60028204905060018216806105ae57607f821691505b6020821081036105c1576105c061056a565b5b50919050565b7f4e487b71000000000000000000000000000000000000000000000000000000005f52604160045260245ffd5b5f819050815f5260205f209050919050565b5f6020601f8301049050919050565b5f82821b905092915050565b5f600883026106507fffffffffffffffffffffffffffffffffffffffffffffffffffffffffffffffff82610615565b61065a8683610615565b95508019841693508086168417925050509392505050565b5f819050919050565b5f61069561069061068b846104e4565b610672565b6104e4565b9050919050565b5f819050919050565b6106ae8361067b565b6106c26106ba8261069c565b848454610621565b825550505050565b5f90565b6106d66106ca565b6106e18184846106a5565b505050565b5b81811015610704576106f95f826106ce565b6001810190506106e7565b5050565b601f8211156107495761071a816105f4565b61072384610606565b81016020851015610732578190505b61074661073e85610606565b8301826106e6565b50505b505050565b5f82821c905092915050565b5f6107695f198460080261074e565b1980831691505092915050565b5f610781838361075a565b9150826002028217905092915050565b61079a82610450565b67ffffffffffffffff8111156107b3576107b26105c7565b5b6107bd8254610597565b6107c8828285610708565b5f60209050601f8311600181146107f9575f84156107e7578287015190505b6107f18582610776565b865550610858565b601f198416610807866105f4565b5f5b8281101561082e57848901518255600182019150602085019450602081019050610809565b8683101561084b5784890151610847601f89168261075a565b8355505b6001600288020188555050505b50505050505056fea2646970667358221220f1af3d234717823763629e96f5b00efb30b9d6a35d626d655d95bf8ed07bb96364736f6c634300081a0033",
					"opcodes": "PUSH1 0x80 PUSH1 0x40 MSTORE PUSH1 0xF PUSH0 SSTORE CALLVALUE DUP1 ISZERO PUSH1 0x12 JUMPI PUSH0 DUP1 REVERT JUMPDEST POP PUSH2 0x896 DUP1 PUSH2 0x20 PUSH0 CODECOPY PUSH0 RETURN INVALID PUSH1 0x80 PUSH1 0x40 MSTORE CALLVALUE DUP1 ISZERO PUSH2 0xF JUMPI PUSH0 DUP1 REVERT JUMPDEST POP PUSH1 0x4 CALLDATASIZE LT PUSH2 0x4A JUMPI PUSH0 CALLDATALOAD PUSH1 0xE0 SHR DUP1 PUSH4 0x1F1BD692 EQ PUSH2 0x4E JUMPI DUP1 PUSH4 0x2DBCEAFF EQ PUSH2 0x6C JUMPI DUP1 PUSH4 0x8381F58A EQ PUSH2 0x9C JUMPI DUP1 PUSH4 0xA459600E EQ PUSH2 0xBA JUMPI JUMPDEST PUSH0 DUP1 REVERT JUMPDEST PUSH2 0x56 PUSH2 0xEA JUMP JUMPDEST PUSH1 0x40 MLOAD PUSH2 0x63 SWAP2 SWAP1 PUSH2 0x4C0 JUMP JUMPDEST PUSH1 0x40 MLOAD DUP1 SWAP2 SUB SWAP1 RETURN JUMPDEST PUSH2 0x86 PUSH1 0x4 DUP1 CALLDATASIZE SUB DUP2 ADD SWAP1 PUSH2 0x81 SWAP2 SWAP1 PUSH2 0x517 JUMP JUMPDEST PUSH2 0x176 JUMP JUMPDEST PUSH1 0x40 MLOAD PUSH2 0x93 SWAP2 SWAP1 PUSH2 0x4C0 JUMP JUMPDEST PUSH1 0x40 MLOAD DUP1 SWAP2 SUB SWAP1 RETURN JUMPDEST PUSH2 0xA4 PUSH2 0x29C JUMP JUMPDEST PUSH1 0x40 MLOAD PUSH2 0xB1 SWAP2 SWAP1 PUSH2 0x551 JUMP JUMPDEST PUSH1 0x40 MLOAD DUP1 SWAP2 SUB SWAP1 RETURN JUMPDEST PUSH2 0xD4 PUSH1 0x4 DUP1 CALLDATASIZE SUB DUP2 ADD SWAP1 PUSH2 0xCF SWAP2 SWAP1 PUSH2 0x517 JUMP JUMPDEST PUSH2 0x2A1 JUMP JUMPDEST PUSH1 0x40 MLOAD PUSH2 0xE1 SWAP2 SWAP1 PUSH2 0x4C0 JUMP JUMPDEST PUSH1 0x40 MLOAD DUP1 SWAP2 SUB SWAP1 RETURN JUMPDEST PUSH1 0x1 DUP1 SLOAD PUSH2 0xF7 SWAP1 PUSH2 0x597 JUMP JUMPDEST DUP1 PUSH1 0x1F ADD PUSH1 0x20 DUP1 SWAP2 DIV MUL PUSH1 0x20 ADD PUSH1 0x40 MLOAD SWAP1 DUP2 ADD PUSH1 0x40 MSTORE DUP1 SWAP3 SWAP2 SWAP1 DUP2 DUP2 MSTORE PUSH1 0x20 ADD DUP3 DUP1 SLOAD PUSH2 0x123 SWAP1 PUSH2 0x597 JUMP JUMPDEST DUP1 ISZERO PUSH2 0x16E JUMPI DUP1 PUSH1 0x1F LT PUSH2 0x145 JUMPI PUSH2 0x100 DUP1 DUP4 SLOAD DIV MUL DUP4 MSTORE SWAP2 PUSH1 0x20 ADD SWAP2 PUSH2 0x16E JUMP JUMPDEST DUP3 ADD SWAP2 SWAP1 PUSH0 MSTORE PUSH1 0x20 PUSH0 KECCAK256 SWAP1 JUMPDEST DUP2 SLOAD DUP2 MSTORE SWAP1 PUSH1 0x1 ADD SWAP1 PUSH1 0x20 ADD DUP1 DUP4 GT PUSH2 0x151 JUMPI DUP3 SWAP1 SUB PUSH1 0x1F AND DUP3 ADD SWAP2 JUMPDEST POP POP POP POP POP DUP2 JUMP JUMPDEST PUSH1 0x60 PUSH1 0xF DUP3 EQ PUSH2 0x1C9 JUMPI PUSH1 0x40 MLOAD DUP1 PUSH1 0x40 ADD PUSH1 0x40 MSTORE DUP1 PUSH1 0x15 DUP2 MSTORE PUSH1 0x20 ADD PUSH32 0x4E756D626572206973206E6F7420636F72726563740000000000000000000000 DUP2 MSTORE POP PUSH1 0x1 SWAP1 DUP2 PUSH2 0x1C4 SWAP2 SWAP1 PUSH2 0x791 JUMP JUMPDEST PUSH2 0x20E JUMP JUMPDEST PUSH1 0x40 MLOAD DUP1 PUSH1 0x40 ADD PUSH1 0x40 MSTORE DUP1 PUSH1 0x11 DUP2 MSTORE PUSH1 0x20 ADD PUSH32 0x4E756D62657220697320636F7272656374000000000000000000000000000000 DUP2 MSTORE POP PUSH1 0x1 SWAP1 DUP2 PUSH2 0x20D SWAP2 SWAP1 PUSH2 0x791 JUMP JUMPDEST JUMPDEST DUP1 SLOAD PUSH2 0x219 SWAP1 PUSH2 0x597 JUMP JUMPDEST DUP1 PUSH1 0x1F ADD PUSH1 0x20 DUP1 SWAP2 DIV MUL PUSH1 0x20 ADD PUSH1 0x40 MLOAD SWAP1 DUP2 ADD PUSH1 0x40 MSTORE DUP1 SWAP3 SWAP2 SWAP1 DUP2 DUP2 MSTORE PUSH1 0x20 ADD DUP3 DUP1 SLOAD PUSH2 0x245 SWAP1 PUSH2 0x597 JUMP JUMPDEST DUP1 ISZERO PUSH2 0x290 JUMPI DUP1 PUSH1 0x1F LT PUSH2 0x267 JUMPI PUSH2 0x100 DUP1 DUP4 SLOAD DIV MUL DUP4 MSTORE SWAP2 PUSH1 0x20 ADD SWAP2 PUSH2 0x290 JUMP JUMPDEST DUP3 ADD SWAP2 SWAP1 PUSH0 MSTORE PUSH1 0x20 PUSH0 KECCAK256 SWAP1 JUMPDEST DUP2 SLOAD DUP2 MSTORE SWAP1 PUSH1 0x1 ADD SWAP1 PUSH1 0x20 ADD DUP1 DUP4 GT PUSH2 0x273 JUMPI DUP3 SWAP1 SUB PUSH1 0x1F AND DUP3 ADD SWAP2 JUMPDEST POP POP POP POP POP SWAP1 POP SWAP2 SWAP1 POP JUMP JUMPDEST PUSH0 SLOAD DUP2 JUMP JUMPDEST PUSH1 0x60 PUSH1 0xF DUP3 SUB PUSH2 0x37D JUMPI PUSH1 0x40 MLOAD DUP1 PUSH1 0x40 ADD PUSH1 0x40 MSTORE DUP1 PUSH1 0x11 DUP2 MSTORE PUSH1 0x20 ADD PUSH32 0x4E756D62657220697320636F7272656374000000000000000000000000000000 DUP2 MSTORE POP PUSH1 0x1 SWAP1 DUP2 PUSH2 0x2EF SWAP2 SWAP1 PUSH2 0x791 JUMP JUMPDEST DUP1 SLOAD PUSH2 0x2FA SWAP1 PUSH2 0x597 JUMP JUMPDEST DUP1 PUSH1 0x1F ADD PUSH1 0x20 DUP1 SWAP2 DIV MUL PUSH1 0x20 ADD PUSH1 0x40 MLOAD SWAP1 DUP2 ADD PUSH1 0x40 MSTORE DUP1 SWAP3 SWAP2 SWAP1 DUP2 DUP2 MSTORE PUSH1 0x20 ADD DUP3 DUP1 SLOAD PUSH2 0x326 SWAP1 PUSH2 0x597 JUMP JUMPDEST DUP1 ISZERO PUSH2 0x371 JUMPI DUP1 PUSH1 0x1F LT PUSH2 0x348 JUMPI PUSH2 0x100 DUP1 DUP4 SLOAD DIV MUL DUP4 MSTORE SWAP2 PUSH1 0x20 ADD SWAP2 PUSH2 0x371 JUMP JUMPDEST DUP3 ADD SWAP2 SWAP1 PUSH0 MSTORE PUSH1 0x20 PUSH0 KECCAK256 SWAP1 JUMPDEST DUP2 SLOAD DUP2 MSTORE SWAP1 PUSH1 0x1 ADD SWAP1 PUSH1 0x20 ADD DUP1 DUP4 GT PUSH2 0x354 JUMPI DUP3 SWAP1 SUB PUSH1 0x1F AND DUP3 ADD SWAP2 JUMPDEST POP POP POP POP POP SWAP1 POP PUSH2 0x44B JUMP JUMPDEST PUSH1 0x40 MLOAD DUP1 PUSH1 0x40 ADD PUSH1 0x40 MSTORE DUP1 PUSH1 0x15 DUP2 MSTORE PUSH1 0x20 ADD PUSH32 0x4E756D626572206973206E6F7420636F72726563740000000000000000000000 DUP2 MSTORE POP PUSH1 0x1 SWAP1 DUP2 PUSH2 0x3C1 SWAP2 SWAP1 PUSH2 0x791 JUMP JUMPDEST DUP1 SLOAD PUSH2 0x3CC SWAP1 PUSH2 0x597 JUMP JUMPDEST DUP1 PUSH1 0x1F ADD PUSH1 0x20 DUP1 SWAP2 DIV MUL PUSH1 0x20 ADD PUSH1 0x40 MLOAD SWAP1 DUP2 ADD PUSH1 0x40 MSTORE DUP1 SWAP3 SWAP2 SWAP1 DUP2 DUP2 MSTORE PUSH1 0x20 ADD DUP3 DUP1 SLOAD PUSH2 0x3F8 SWAP1 PUSH2 0x597 JUMP JUMPDEST DUP1 ISZERO PUSH2 0x443 JUMPI DUP1 PUSH1 0x1F LT PUSH2 0x41A JUMPI PUSH2 0x100 DUP1 DUP4 SLOAD DIV MUL DUP4 MSTORE SWAP2 PUSH1 0x20 ADD SWAP2 PUSH2 0x443 JUMP JUMPDEST DUP3 ADD SWAP2 SWAP1 PUSH0 MSTORE PUSH1 0x20 PUSH0 KECCAK256 SWAP1 JUMPDEST DUP2 SLOAD DUP2 MSTORE SWAP1 PUSH1 0x1 ADD SWAP1 PUSH1 0x20 ADD DUP1 DUP4 GT PUSH2 0x426 JUMPI DUP3 SWAP1 SUB PUSH1 0x1F AND DUP3 ADD SWAP2 JUMPDEST POP POP POP POP POP SWAP1 POP JUMPDEST SWAP2 SWAP1 POP JUMP JUMPDEST PUSH0 DUP2 MLOAD SWAP1 POP SWAP2 SWAP1 POP JUMP JUMPDEST PUSH0 DUP3 DUP3 MSTORE PUSH1 0x20 DUP3 ADD SWAP1 POP SWAP3 SWAP2 POP POP JUMP JUMPDEST DUP3 DUP2 DUP4 MCOPY PUSH0 DUP4 DUP4 ADD MSTORE POP POP POP JUMP JUMPDEST PUSH0 PUSH1 0x1F NOT PUSH1 0x1F DUP4 ADD AND SWAP1 POP SWAP2 SWAP1 POP JUMP JUMPDEST PUSH0 PUSH2 0x492 DUP3 PUSH2 0x450 JUMP JUMPDEST PUSH2 0x49C DUP2 DUP6 PUSH2 0x45A JUMP JUMPDEST SWAP4 POP PUSH2 0x4AC DUP2 DUP6 PUSH1 0x20 DUP7 ADD PUSH2 0x46A JUMP JUMPDEST PUSH2 0x4B5 DUP2 PUSH2 0x478 JUMP JUMPDEST DUP5 ADD SWAP2 POP POP SWAP3 SWAP2 POP POP JUMP JUMPDEST PUSH0 PUSH1 0x20 DUP3 ADD SWAP1 POP DUP2 DUP2 SUB PUSH0 DUP4 ADD MSTORE PUSH2 0x4D8 DUP2 DUP5 PUSH2 0x488 JUMP JUMPDEST SWAP1 POP SWAP3 SWAP2 POP POP JUMP JUMPDEST PUSH0 DUP1 REVERT JUMPDEST PUSH0 DUP2 SWAP1 POP SWAP2 SWAP1 POP JUMP JUMPDEST PUSH2 0x4F6 DUP2 PUSH2 0x4E4 JUMP JUMPDEST DUP2 EQ PUSH2 0x500 JUMPI PUSH0 DUP1 REVERT JUMPDEST POP JUMP JUMPDEST PUSH0 DUP2 CALLDATALOAD SWAP1 POP PUSH2 0x511 DUP2 PUSH2 0x4ED JUMP JUMPDEST SWAP3 SWAP2 POP POP JUMP JUMPDEST PUSH0 PUSH1 0x20 DUP3 DUP5 SUB SLT ISZERO PUSH2 0x52C JUMPI PUSH2 0x52B PUSH2 0x4E0 JUMP JUMPDEST JUMPDEST PUSH0 PUSH2 0x539 DUP5 DUP3 DUP6 ADD PUSH2 0x503 JUMP JUMPDEST SWAP2 POP POP SWAP3 SWAP2 POP POP JUMP JUMPDEST PUSH2 0x54B DUP2 PUSH2 0x4E4 JUMP JUMPDEST DUP3 MSTORE POP POP JUMP JUMPDEST PUSH0 PUSH1 0x20 DUP3 ADD SWAP1 POP PUSH2 0x564 PUSH0 DUP4 ADD DUP5 PUSH2 0x542 JUMP JUMPDEST SWAP3 SWAP2 POP POP JUMP JUMPDEST PUSH32 0x4E487B7100000000000000000000000000000000000000000000000000000000 PUSH0 MSTORE PUSH1 0x22 PUSH1 0x4 MSTORE PUSH1 0x24 PUSH0 REVERT JUMPDEST PUSH0 PUSH1 0x2 DUP3 DIV SWAP1 POP PUSH1 0x1 DUP3 AND DUP1 PUSH2 0x5AE JUMPI PUSH1 0x7F DUP3 AND SWAP2 POP JUMPDEST PUSH1 0x20 DUP3 LT DUP2 SUB PUSH2 0x5C1 JUMPI PUSH2 0x5C0 PUSH2 0x56A JUMP JUMPDEST JUMPDEST POP SWAP2 SWAP1 POP JUMP JUMPDEST PUSH32 0x4E487B7100000000000000000000000000000000000000000000000000000000 PUSH0 MSTORE PUSH1 0x41 PUSH1 0x4 MSTORE PUSH1 0x24 PUSH0 REVERT JUMPDEST PUSH0 DUP2 SWAP1 POP DUP2 PUSH0 MSTORE PUSH1 0x20 PUSH0 KECCAK256 SWAP1 POP SWAP2 SWAP1 POP JUMP JUMPDEST PUSH0 PUSH1 0x20 PUSH1 0x1F DUP4 ADD DIV SWAP1 POP SWAP2 SWAP1 POP JUMP JUMPDEST PUSH0 DUP3 DUP3 SHL SWAP1 POP SWAP3 SWAP2 POP POP JUMP JUMPDEST PUSH0 PUSH1 0x8 DUP4 MUL PUSH2 0x650 PUSH32 0xFFFFFFFFFFFFFFFFFFFFFFFFFFFFFFFFFFFFFFFFFFFFFFFFFFFFFFFFFFFFFFFF DUP3 PUSH2 0x615 JUMP JUMPDEST PUSH2 0x65A DUP7 DUP4 PUSH2 0x615 JUMP JUMPDEST SWAP6 POP DUP1 NOT DUP5 AND SWAP4 POP DUP1 DUP7 AND DUP5 OR SWAP3 POP POP POP SWAP4 SWAP3 POP POP POP JUMP JUMPDEST PUSH0 DUP2 SWAP1 POP SWAP2 SWAP1 POP JUMP JUMPDEST PUSH0 PUSH2 0x695 PUSH2 0x690 PUSH2 0x68B DUP5 PUSH2 0x4E4 JUMP JUMPDEST PUSH2 0x672 JUMP JUMPDEST PUSH2 0x4E4 JUMP JUMPDEST SWAP1 POP SWAP2 SWAP1 POP JUMP JUMPDEST PUSH0 DUP2 SWAP1 POP SWAP2 SWAP1 POP JUMP JUMPDEST PUSH2 0x6AE DUP4 PUSH2 0x67B JUMP JUMPDEST PUSH2 0x6C2 PUSH2 0x6BA DUP3 PUSH2 0x69C JUMP JUMPDEST DUP5 DUP5 SLOAD PUSH2 0x621 JUMP JUMPDEST DUP3 SSTORE POP POP POP POP JUMP JUMPDEST PUSH0 SWAP1 JUMP JUMPDEST PUSH2 0x6D6 PUSH2 0x6CA JUMP JUMPDEST PUSH2 0x6E1 DUP2 DUP5 DUP5 PUSH2 0x6A5 JUMP JUMPDEST POP POP POP JUMP JUMPDEST JUMPDEST DUP2 DUP2 LT ISZERO PUSH2 0x704 JUMPI PUSH2 0x6F9 PUSH0 DUP3 PUSH2 0x6CE JUMP JUMPDEST PUSH1 0x1 DUP2 ADD SWAP1 POP PUSH2 0x6E7 JUMP JUMPDEST POP POP JUMP JUMPDEST PUSH1 0x1F DUP3 GT ISZERO PUSH2 0x749 JUMPI PUSH2 0x71A DUP2 PUSH2 0x5F4 JUMP JUMPDEST PUSH2 0x723 DUP5 PUSH2 0x606 JUMP JUMPDEST DUP2 ADD PUSH1 0x20 DUP6 LT ISZERO PUSH2 0x732 JUMPI DUP2 SWAP1 POP JUMPDEST PUSH2 0x746 PUSH2 0x73E DUP6 PUSH2 0x606 JUMP JUMPDEST DUP4 ADD DUP3 PUSH2 0x6E6 JUMP JUMPDEST POP POP JUMPDEST POP POP POP JUMP JUMPDEST PUSH0 DUP3 DUP3 SHR SWAP1 POP SWAP3 SWAP2 POP POP JUMP JUMPDEST PUSH0 PUSH2 0x769 PUSH0 NOT DUP5 PUSH1 0x8 MUL PUSH2 0x74E JUMP JUMPDEST NOT DUP1 DUP4 AND SWAP2 POP POP SWAP3 SWAP2 POP POP JUMP JUMPDEST PUSH0 PUSH2 0x781 DUP4 DUP4 PUSH2 0x75A JUMP JUMPDEST SWAP2 POP DUP3 PUSH1 0x2 MUL DUP3 OR SWAP1 POP SWAP3 SWAP2 POP POP JUMP JUMPDEST PUSH2 0x79A DUP3 PUSH2 0x450 JUMP JUMPDEST PUSH8 0xFFFFFFFFFFFFFFFF DUP2 GT ISZERO PUSH2 0x7B3 JUMPI PUSH2 0x7B2 PUSH2 0x5C7 JUMP JUMPDEST JUMPDEST PUSH2 0x7BD DUP3 SLOAD PUSH2 0x597 JUMP JUMPDEST PUSH2 0x7C8 DUP3 DUP3 DUP6 PUSH2 0x708 JUMP JUMPDEST PUSH0 PUSH1 0x20 SWAP1 POP PUSH1 0x1F DUP4 GT PUSH1 0x1 DUP2 EQ PUSH2 0x7F9 JUMPI PUSH0 DUP5 ISZERO PUSH2 0x7E7 JUMPI DUP3 DUP8 ADD MLOAD SWAP1 POP JUMPDEST PUSH2 0x7F1 DUP6 DUP3 PUSH2 0x776 JUMP JUMPDEST DUP7 SSTORE POP PUSH2 0x858 JUMP JUMPDEST PUSH1 0x1F NOT DUP5 AND PUSH2 0x807 DUP7 PUSH2 0x5F4 JUMP JUMPDEST PUSH0 JUMPDEST DUP3 DUP2 LT ISZERO PUSH2 0x82E JUMPI DUP5 DUP10 ADD MLOAD DUP3 SSTORE PUSH1 0x1 DUP3 ADD SWAP2 POP PUSH1 0x20 DUP6 ADD SWAP5 POP PUSH1 0x20 DUP2 ADD SWAP1 POP PUSH2 0x809 JUMP JUMPDEST DUP7 DUP4 LT ISZERO PUSH2 0x84B JUMPI DUP5 DUP10 ADD MLOAD PUSH2 0x847 PUSH1 0x1F DUP10 AND DUP3 PUSH2 0x75A JUMP JUMPDEST DUP4 SSTORE POP JUMPDEST PUSH1 0x1 PUSH1 0x2 DUP9 MUL ADD DUP9 SSTORE POP POP POP JUMPDEST POP POP POP POP POP POP JUMP INVALID LOG2 PUSH5 0x6970667358 0x22 SLT KECCAK256 CALL 0xAF RETURNDATASIZE 0x23 SELFBALANCE OR DUP3 CALLDATACOPY PUSH4 0x629E96F5 0xB0 0xE 0xFB ADDRESS 0xB9 0xD6 LOG3 TSTORE PUSH3 0x6D655D SWAP6 0xBF DUP15 0xD0 PUSH28 0xB96364736F6C634300081A0033000000000000000000000000000000 "
				},
				"gasEstimates": {
					"creation": {
						"codeDepositCost": "439600",
						"executionCost": "22577",
						"totalCost": "462177"
					},
					"external": {
						"getInput(uint256)": "infinite",
						"number()": "2446",
						"shortHand(uint256)": "infinite",
						"text()": "infinite"
					}
				},
				"methodIdentifiers": {
					"getInput(uint256)": "a459600e",
					"number()": "8381f58a",
					"shortHand(uint256)": "2dbceaff",
					"text()": "1f1bd692"
				}
			},
			"storageLayout": {
				"storage": [
					{
						"astId": 4,
						"contract": "ifElse.sol:IfEsle",
						"label": "number",
						"offset": 0,
						"slot": "0",
						"type": "t_uint256"
					},
					{
						"astId": 6,
						"contract": "ifElse.sol:IfEsle",
						"label": "text",
						"offset": 0,
						"slot": "1",
						"type": "t_string_storage"
					}
				],
				"types": {
					"t_string_storage": {
						"encoding": "bytes",
						"label": "string",
						"numberOfBytes": "32"
					},
					"t_uint256": {
						"encoding": "inplace",
						"label": "uint256",
						"numberOfBytes": "32"
					}
				}
			},
			"userdoc": {
				"kind": "user",
				"methods": {},
				"version": 1
			}
		}
	}
}