{
	"COURSE/inheritance.sol": {
		"ModifierExample": {
			"abi": [
				{
					"inputs": [],
					"stateMutability": "nonpayable",
					"type": "constructor"
				},
				{
					"inputs": [],
					"name": "owner",
					"outputs": [
						{
							"internalType": "address",
							"name": "",
							"type": "address"
						}
					],
					"stateMutability": "view",
					"type": "function"
				},
				{
					"inputs": [],
					"name": "sensitiveAction",
					"outputs": [],
					"stateMutability": "nonpayable",
					"type": "function"
				}
			],
			"devdoc": {
				"kind": "dev",
				"methods": {},
				"version": 1
			},
			"evm": {
				"assembly": "    /* \"COURSE/inheritance.sol\":440:827  contract ModifierExample {... */\n  mstore(0x40, 0x80)\n    /* \"COURSE/inheritance.sol\":501:562  constructor() {... */\n  callvalue\n  dup1\n  iszero\n  tag_1\n  jumpi\n  0x00\n  dup1\n  revert\ntag_1:\n  pop\n    /* \"COURSE/inheritance.sol\":534:544  msg.sender */\n  caller\n    /* \"COURSE/inheritance.sol\":526:531  owner */\n  0x00\n  dup1\n    /* \"COURSE/inheritance.sol\":526:544  owner = msg.sender */\n  0x0100\n  exp\n  dup2\n  sload\n  dup2\n  0xffffffffffffffffffffffffffffffffffffffff\n  mul\n  not\n  and\n  swap1\n  dup4\n  0xffffffffffffffffffffffffffffffffffffffff\n  and\n  mul\n  or\n  swap1\n  sstore\n  pop\n    /* \"COURSE/inheritance.sol\":440:827  contract ModifierExample {... */\n  dataSize(sub_0)\n  dup1\n  dataOffset(sub_0)\n  0x00\n  codecopy\n  0x00\n  return\nstop\n\nsub_0: assembly {\n        /* \"COURSE/inheritance.sol\":440:827  contract ModifierExample {... */\n      mstore(0x40, 0x80)\n      callvalue\n      dup1\n      iszero\n      tag_1\n      jumpi\n      0x00\n      dup1\n      revert\n    tag_1:\n      pop\n      jumpi(tag_2, lt(calldatasize, 0x04))\n      shr(0xe0, calldataload(0x00))\n      dup1\n      0x19dada94\n      eq\n      tag_3\n      jumpi\n      dup1\n      0x8da5cb5b\n      eq\n      tag_4\n      jumpi\n    tag_2:\n      0x00\n      dup1\n      revert\n        /* \"COURSE/inheritance.sol\":739:824  function sensitiveAction() public onlyOwner{... */\n    tag_3:\n      tag_5\n      tag_6\n      jump\t// in\n    tag_5:\n      stop\n        /* \"COURSE/inheritance.sol\":472:492  address public owner */\n    tag_4:\n      tag_7\n      tag_8\n      jump\t// in\n    tag_7:\n      mload(0x40)\n      tag_9\n      swap2\n      swap1\n      tag_10\n      jump\t// in\n    tag_9:\n      mload(0x40)\n      dup1\n      swap2\n      sub\n      swap1\n      return\n        /* \"COURSE/inheritance.sol\":739:824  function sensitiveAction() public onlyOwner{... */\n    tag_6:\n        /* \"COURSE/inheritance.sol\":642:647  owner */\n      0x00\n      dup1\n      sload\n      swap1\n      0x0100\n      exp\n      swap1\n      div\n      0xffffffffffffffffffffffffffffffffffffffff\n      and\n        /* \"COURSE/inheritance.sol\":628:647  msg.sender == owner */\n      0xffffffffffffffffffffffffffffffffffffffff\n      and\n        /* \"COURSE/inheritance.sol\":628:638  msg.sender */\n      caller\n        /* \"COURSE/inheritance.sol\":628:647  msg.sender == owner */\n      0xffffffffffffffffffffffffffffffffffffffff\n      and\n      eq\n        /* \"COURSE/inheritance.sol\":620:674  require(msg.sender == owner, \"Not the contract owner\") */\n      tag_12\n      jumpi\n      mload(0x40)\n      0x08c379a000000000000000000000000000000000000000000000000000000000\n      dup2\n      mstore\n      0x04\n      add\n      tag_13\n      swap1\n      tag_14\n      jump\t// in\n    tag_13:\n      mload(0x40)\n      dup1\n      swap2\n      sub\n      swap1\n      revert\n    tag_12:\n        /* \"COURSE/inheritance.sol\":739:824  function sensitiveAction() public onlyOwner{... */\n      jump\t// out\n        /* \"COURSE/inheritance.sol\":472:492  address public owner */\n    tag_8:\n      0x00\n      dup1\n      sload\n      swap1\n      0x0100\n      exp\n      swap1\n      div\n      0xffffffffffffffffffffffffffffffffffffffff\n      and\n      dup2\n      jump\t// out\n        /* \"#utility.yul\":7:133   */\n    tag_16:\n        /* \"#utility.yul\":44:51   */\n      0x00\n        /* \"#utility.yul\":84:126   */\n      0xffffffffffffffffffffffffffffffffffffffff\n        /* \"#utility.yul\":77:82   */\n      dup3\n        /* \"#utility.yul\":73:127   */\n      and\n        /* \"#utility.yul\":62:127   */\n      swap1\n      pop\n        /* \"#utility.yul\":7:133   */\n      swap2\n      swap1\n      pop\n      jump\t// out\n        /* \"#utility.yul\":139:235   */\n    tag_17:\n        /* \"#utility.yul\":176:183   */\n      0x00\n        /* \"#utility.yul\":205:229   */\n      tag_25\n        /* \"#utility.yul\":223:228   */\n      dup3\n        /* \"#utility.yul\":205:229   */\n      tag_16\n      jump\t// in\n    tag_25:\n        /* \"#utility.yul\":194:229   */\n      swap1\n      pop\n        /* \"#utility.yul\":139:235   */\n      swap2\n      swap1\n      pop\n      jump\t// out\n        /* \"#utility.yul\":241:359   */\n    tag_18:\n        /* \"#utility.yul\":328:352   */\n      tag_27\n        /* \"#utility.yul\":346:351   */\n      dup2\n        /* \"#utility.yul\":328:352   */\n      tag_17\n      jump\t// in\n    tag_27:\n        /* \"#utility.yul\":323:326   */\n      dup3\n        /* \"#utility.yul\":316:353   */\n      mstore\n        /* \"#utility.yul\":241:359   */\n      pop\n      pop\n      jump\t// out\n        /* \"#utility.yul\":365:587   */\n    tag_10:\n        /* \"#utility.yul\":458:462   */\n      0x00\n        /* \"#utility.yul\":496:498   */\n      0x20\n        /* \"#utility.yul\":485:494   */\n      dup3\n        /* \"#utility.yul\":481:499   */\n      add\n        /* \"#utility.yul\":473:499   */\n      swap1\n      pop\n        /* \"#utility.yul\":509:580   */\n      tag_29\n        /* \"#utility.yul\":577:578   */\n      0x00\n        /* \"#utility.yul\":566:575   */\n      dup4\n        /* \"#utility.yul\":562:579   */\n      add\n        /* \"#utility.yul\":553:559   */\n      dup5\n        /* \"#utility.yul\":509:580   */\n      tag_18\n      jump\t// in\n    tag_29:\n        /* \"#utility.yul\":365:587   */\n      swap3\n      swap2\n      pop\n      pop\n      jump\t// out\n        /* \"#utility.yul\":593:762   */\n    tag_19:\n        /* \"#utility.yul\":677:688   */\n      0x00\n        /* \"#utility.yul\":711:717   */\n      dup3\n        /* \"#utility.yul\":706:709   */\n      dup3\n        /* \"#utility.yul\":699:718   */\n      mstore\n        /* \"#utility.yul\":751:755   */\n      0x20\n        /* \"#utility.yul\":746:749   */\n      dup3\n        /* \"#utility.yul\":742:756   */\n      add\n        /* \"#utility.yul\":727:756   */\n      swap1\n      pop\n        /* \"#utility.yul\":593:762   */\n      swap3\n      swap2\n      pop\n      pop\n      jump\t// out\n        /* \"#utility.yul\":768:940   */\n    tag_20:\n        /* \"#utility.yul\":908:932   */\n      0x4e6f742074686520636f6e7472616374206f776e657200000000000000000000\n        /* \"#utility.yul\":904:905   */\n      0x00\n        /* \"#utility.yul\":896:902   */\n      dup3\n        /* \"#utility.yul\":892:906   */\n      add\n        /* \"#utility.yul\":885:933   */\n      mstore\n        /* \"#utility.yul\":768:940   */\n      pop\n      jump\t// out\n        /* \"#utility.yul\":946:1312   */\n    tag_21:\n        /* \"#utility.yul\":1088:1091   */\n      0x00\n        /* \"#utility.yul\":1109:1176   */\n      tag_33\n        /* \"#utility.yul\":1173:1175   */\n      0x16\n        /* \"#utility.yul\":1168:1171   */\n      dup4\n        /* \"#utility.yul\":1109:1176   */\n      tag_19\n      jump\t// in\n    tag_33:\n        /* \"#utility.yul\":1102:1176   */\n      swap2\n      pop\n        /* \"#utility.yul\":1185:1278   */\n      tag_34\n        /* \"#utility.yul\":1274:1277   */\n      dup3\n        /* \"#utility.yul\":1185:1278   */\n      tag_20\n      jump\t// in\n    tag_34:\n        /* \"#utility.yul\":1303:1305   */\n      0x20\n        /* \"#utility.yul\":1298:1301   */\n      dup3\n        /* \"#utility.yul\":1294:1306   */\n      add\n        /* \"#utility.yul\":1287:1306   */\n      swap1\n      pop\n        /* \"#utility.yul\":946:1312   */\n      swap2\n      swap1\n      pop\n      jump\t// out\n        /* \"#utility.yul\":1318:1737   */\n    tag_14:\n        /* \"#utility.yul\":1484:1488   */\n      0x00\n        /* \"#utility.yul\":1522:1524   */\n      0x20\n        /* \"#utility.yul\":1511:1520   */\n      dup3\n        /* \"#utility.yul\":1507:1525   */\n      add\n        /* \"#utility.yul\":1499:1525   */\n      swap1\n      pop\n        /* \"#utility.yul\":1571:1580   */\n      dup2\n        /* \"#utility.yul\":1565:1569   */\n      dup2\n        /* \"#utility.yul\":1561:1581   */\n      sub\n        /* \"#utility.yul\":1557:1558   */\n      0x00\n        /* \"#utility.yul\":1546:1555   */\n      dup4\n        /* \"#utility.yul\":1542:1559   */\n      add\n        /* \"#utility.yul\":1535:1582   */\n      mstore\n        /* \"#utility.yul\":1599:1730   */\n      tag_36\n        /* \"#utility.yul\":1725:1729   */\n      dup2\n        /* \"#utility.yul\":1599:1730   */\n      tag_21\n      jump\t// in\n    tag_36:\n        /* \"#utility.yul\":1591:1730   */\n      swap1\n      pop\n        /* \"#utility.yul\":1318:1737   */\n      swap2\n      swap1\n      pop\n      jump\t// out\n\n    auxdata: 0xa2646970667358221220ca8e560e3dc6f4b5fca14fae7da64afcc9dfcea471a05c6296323913d2a2d3e064736f6c634300081a0033\n}\n",
				"bytecode": {
					"linkReferences": {},
					"object": "6080604052348015600e575f80fd5b50335f806101000a81548173ffffffffffffffffffffffffffffffffffffffff021916908373ffffffffffffffffffffffffffffffffffffffff1602179055506102188061005b5f395ff3fe608060405234801561000f575f80fd5b5060043610610034575f3560e01c806319dada94146100385780638da5cb5b14610042575b5f80fd5b610040610060565b005b61004a6100ef565b6040516100579190610151565b60405180910390f35b5f8054906101000a900473ffffffffffffffffffffffffffffffffffffffff1673ffffffffffffffffffffffffffffffffffffffff163373ffffffffffffffffffffffffffffffffffffffff16146100ed576040517f08c379a00000000000000000000000000000000000000000000000000000000081526004016100e4906101c4565b60405180910390fd5b565b5f8054906101000a900473ffffffffffffffffffffffffffffffffffffffff1681565b5f73ffffffffffffffffffffffffffffffffffffffff82169050919050565b5f61013b82610112565b9050919050565b61014b81610131565b82525050565b5f6020820190506101645f830184610142565b92915050565b5f82825260208201905092915050565b7f4e6f742074686520636f6e7472616374206f776e6572000000000000000000005f82015250565b5f6101ae60168361016a565b91506101b98261017a565b602082019050919050565b5f6020820190508181035f8301526101db816101a2565b905091905056fea2646970667358221220ca8e560e3dc6f4b5fca14fae7da64afcc9dfcea471a05c6296323913d2a2d3e064736f6c634300081a0033",
					"opcodes": "PUSH1 0x80 PUSH1 0x40 MSTORE CALLVALUE DUP1 ISZERO PUSH1 0xE JUMPI PUSH0 DUP1 REVERT JUMPDEST POP CALLER PUSH0 DUP1 PUSH2 0x100 EXP DUP2 SLOAD DUP2 PUSH20 0xFFFFFFFFFFFFFFFFFFFFFFFFFFFFFFFFFFFFFFFF MUL NOT AND SWAP1 DUP4 PUSH20 0xFFFFFFFFFFFFFFFFFFFFFFFFFFFFFFFFFFFFFFFF AND MUL OR SWAP1 SSTORE POP PUSH2 0x218 DUP1 PUSH2 0x5B PUSH0 CODECOPY PUSH0 RETURN INVALID PUSH1 0x80 PUSH1 0x40 MSTORE CALLVALUE DUP1 ISZERO PUSH2 0xF JUMPI PUSH0 DUP1 REVERT JUMPDEST POP PUSH1 0x4 CALLDATASIZE LT PUSH2 0x34 JUMPI PUSH0 CALLDATALOAD PUSH1 0xE0 SHR DUP1 PUSH4 0x19DADA94 EQ PUSH2 0x38 JUMPI DUP1 PUSH4 0x8DA5CB5B EQ PUSH2 0x42 JUMPI JUMPDEST PUSH0 DUP1 REVERT JUMPDEST PUSH2 0x40 PUSH2 0x60 JUMP JUMPDEST STOP JUMPDEST PUSH2 0x4A PUSH2 0xEF JUMP JUMPDEST PUSH1 0x40 MLOAD PUSH2 0x57 SWAP2 SWAP1 PUSH2 0x151 JUMP JUMPDEST PUSH1 0x40 MLOAD DUP1 SWAP2 SUB SWAP1 RETURN JUMPDEST PUSH0 DUP1 SLOAD SWAP1 PUSH2 0x100 EXP SWAP1 DIV PUSH20 0xFFFFFFFFFFFFFFFFFFFFFFFFFFFFFFFFFFFFFFFF AND PUSH20 0xFFFFFFFFFFFFFFFFFFFFFFFFFFFFFFFFFFFFFFFF AND CALLER PUSH20 0xFFFFFFFFFFFFFFFFFFFFFFFFFFFFFFFFFFFFFFFF AND EQ PUSH2 0xED JUMPI PUSH1 0x40 MLOAD PUSH32 0x8C379A000000000000000000000000000000000000000000000000000000000 DUP2 MSTORE PUSH1 0x4 ADD PUSH2 0xE4 SWAP1 PUSH2 0x1C4 JUMP JUMPDEST PUSH1 0x40 MLOAD DUP1 SWAP2 SUB SWAP1 REVERT JUMPDEST JUMP JUMPDEST PUSH0 DUP1 SLOAD SWAP1 PUSH2 0x100 EXP SWAP1 DIV PUSH20 0xFFFFFFFFFFFFFFFFFFFFFFFFFFFFFFFFFFFFFFFF AND DUP2 JUMP JUMPDEST PUSH0 PUSH20 0xFFFFFFFFFFFFFFFFFFFFFFFFFFFFFFFFFFFFFFFF DUP3 AND SWAP1 POP SWAP2 SWAP1 POP JUMP JUMPDEST PUSH0 PUSH2 0x13B DUP3 PUSH2 0x112 JUMP JUMPDEST SWAP1 POP SWAP2 SWAP1 POP JUMP JUMPDEST PUSH2 0x14B DUP2 PUSH2 0x131 JUMP JUMPDEST DUP3 MSTORE POP POP JUMP JUMPDEST PUSH0 PUSH1 0x20 DUP3 ADD SWAP1 POP PUSH2 0x164 PUSH0 DUP4 ADD DUP5 PUSH2 0x142 JUMP JUMPDEST SWAP3 SWAP2 POP POP JUMP JUMPDEST PUSH0 DUP3 DUP3 MSTORE PUSH1 0x20 DUP3 ADD SWAP1 POP SWAP3 SWAP2 POP POP JUMP JUMPDEST PUSH32 0x4E6F742074686520636F6E7472616374206F776E657200000000000000000000 PUSH0 DUP3 ADD MSTORE POP JUMP JUMPDEST PUSH0 PUSH2 0x1AE PUSH1 0x16 DUP4 PUSH2 0x16A JUMP JUMPDEST SWAP2 POP PUSH2 0x1B9 DUP3 PUSH2 0x17A JUMP JUMPDEST PUSH1 0x20 DUP3 ADD SWAP1 POP SWAP2 SWAP1 POP JUMP JUMPDEST PUSH0 PUSH1 0x20 DUP3 ADD SWAP1 POP DUP2 DUP2 SUB PUSH0 DUP4 ADD MSTORE PUSH2 0x1DB DUP2 PUSH2 0x1A2 JUMP JUMPDEST SWAP1 POP SWAP2 SWAP1 POP JUMP INVALID LOG2 PUSH5 0x6970667358 0x22 SLT KECCAK256 0xCA DUP15 JUMP 0xE RETURNDATASIZE 0xC6 DELEGATECALL 0xB5 0xFC LOG1 0x4F 0xAE PUSH30 0xA64AFCC9DFCEA471A05C6296323913D2A2D3E064736F6C634300081A0033 "
				},
				"gasEstimates": {
					"creation": {
						"codeDepositCost": "107200",
						"executionCost": "24416",
						"totalCost": "131616"
					},
					"external": {
						"owner()": "2505",
						"sensitiveAction()": "2571"
					}
				},
				"methodIdentifiers": {
					"owner()": "8da5cb5b",
					"sensitiveAction()": "19dada94"
				}
			},
			"storageLayout": {
				"storage": [
					{
						"astId": 24,
						"contract": "COURSE/inheritance.sol:ModifierExample",
						"label": "owner",
						"offset": 0,
						"slot": "0",
						"type": "t_address"
					}
				],
				"types": {
					"t_address": {
						"encoding": "inplace",
						"label": "address",
						"numberOfBytes": "20"
					}
				}
			},
			"userdoc": {
				"kind": "user",
				"methods": {},
				"version": 1
			}
		}
	}
}