{
	"data": {
		"bytecode": {
			"linkReferences": {},
			"object": "6080604052600f5f553480156012575f80fd5b50610786806100205f395ff3fe608060405234801561000f575f80fd5b506004361061004a575f3560e01c80631f1bd6921461004e5780632dbceaff1461006c5780638381f58a1461009c578063a459600e146100ba575b5f80fd5b6100566100ea565b60405161006391906103b0565b60405180910390f35b61008660048036038101906100819190610407565b610176565b60405161009391906103b0565b60405180910390f35b6100a461029c565b6040516100b19190610441565b60405180910390f35b6100d460048036038101906100cf9190610407565b6102a1565b6040516100e191906103b0565b60405180910390f35b600180546100f790610487565b80601f016020809104026020016040519081016040528092919081815260200182805461012390610487565b801561016e5780601f106101455761010080835404028352916020019161016e565b820191905f5260205f20905b81548152906001019060200180831161015157829003601f168201915b505050505081565b6060600f82146101c9576040518060400160405280601581526020017f4e756d626572206973206e6f7420636f72726563740000000000000000000000815250600190816101c49190610681565b61020e565b6040518060400160405280601181526020017f4e756d62657220697320636f72726563740000000000000000000000000000008152506001908161020d9190610681565b5b805461021990610487565b80601f016020809104026020016040519081016040528092919081815260200182805461024590610487565b80156102905780601f1061026757610100808354040283529160200191610290565b820191905f5260205f20905b81548152906001019060200180831161027357829003601f168201915b50505050509050919050565b5f5481565b6060600f82036102f5576040518060400160405280601181526020017f4e756d62657220697320636f7272656374000000000000000000000000000000815250600190816102ef9190610681565b5061033b565b6040518060400160405280601581526020017f4e756d626572206973206e6f7420636f72726563740000000000000000000000815250600190816103399190610681565b505b919050565b5f81519050919050565b5f82825260208201905092915050565b8281835e5f83830152505050565b5f601f19601f8301169050919050565b5f61038282610340565b61038c818561034a565b935061039c81856020860161035a565b6103a581610368565b840191505092915050565b5f6020820190508181035f8301526103c88184610378565b905092915050565b5f80fd5b5f819050919050565b6103e6816103d4565b81146103f0575f80fd5b50565b5f81359050610401816103dd565b92915050565b5f6020828403121561041c5761041b6103d0565b5b5f610429848285016103f3565b91505092915050565b61043b816103d4565b82525050565b5f6020820190506104545f830184610432565b92915050565b7f4e487b71000000000000000000000000000000000000000000000000000000005f52602260045260245ffd5b5f600282049050600182168061049e57607f821691505b6020821081036104b1576104b061045a565b5b50919050565b7f4e487b71000000000000000000000000000000000000000000000000000000005f52604160045260245ffd5b5f819050815f5260205f209050919050565b5f6020601f8301049050919050565b5f82821b905092915050565b5f600883026105407fffffffffffffffffffffffffffffffffffffffffffffffffffffffffffffffff82610505565b61054a8683610505565b95508019841693508086168417925050509392505050565b5f819050919050565b5f61058561058061057b846103d4565b610562565b6103d4565b9050919050565b5f819050919050565b61059e8361056b565b6105b26105aa8261058c565b848454610511565b825550505050565b5f90565b6105c66105ba565b6105d1818484610595565b505050565b5b818110156105f4576105e95f826105be565b6001810190506105d7565b5050565b601f8211156106395761060a816104e4565b610613846104f6565b81016020851015610622578190505b61063661062e856104f6565b8301826105d6565b50505b505050565b5f82821c905092915050565b5f6106595f198460080261063e565b1980831691505092915050565b5f610671838361064a565b9150826002028217905092915050565b61068a82610340565b67ffffffffffffffff8111156106a3576106a26104b7565b5b6106ad8254610487565b6106b88282856105f8565b5f60209050601f8311600181146106e9575f84156106d7578287015190505b6106e18582610666565b865550610748565b601f1984166106f7866104e4565b5f5b8281101561071e578489015182556001820191506020850194506020810190506106f9565b8683101561073b5784890151610737601f89168261064a565b8355505b6001600288020188555050505b50505050505056fea2646970667358221220c96400abdcdd8cfc6415f3cbc7378fe5afc03a1fd25621217f024581fa60df4564736f6c634300081a0033",
			"opcodes": "PUSH1 0x80 PUSH1 0x40 MSTORE PUSH1 0xF PUSH0 SSTORE CALLVALUE DUP1 ISZERO PUSH1 0x12 JUMPI PUSH0 DUP1 REVERT JUMPDEST POP PUSH2 0x786 DUP1 PUSH2 0x20 PUSH0 CODECOPY PUSH0 RETURN INVALID PUSH1 0x80 PUSH1 0x40 MSTORE CALLVALUE DUP1 ISZERO PUSH2 0xF JUMPI PUSH0 DUP1 REVERT JUMPDEST POP PUSH1 0x4 CALLDATASIZE LT PUSH2 0x4A JUMPI PUSH0 CALLDATALOAD PUSH1 0xE0 SHR DUP1 PUSH4 0x1F1BD692 EQ PUSH2 0x4E JUMPI DUP1 PUSH4 0x2DBCEAFF EQ PUSH2 0x6C JUMPI DUP1 PUSH4 0x8381F58A EQ PUSH2 0x9C JUMPI DUP1 PUSH4 0xA459600E EQ PUSH2 0xBA JUMPI JUMPDEST PUSH0 DUP1 REVERT JUMPDEST PUSH2 0x56 PUSH2 0xEA JUMP JUMPDEST PUSH1 0x40 MLOAD PUSH2 0x63 SWAP2 SWAP1 PUSH2 0x3B0 JUMP JUMPDEST PUSH1 0x40 MLOAD DUP1 SWAP2 SUB SWAP1 RETURN JUMPDEST PUSH2 0x86 PUSH1 0x4 DUP1 CALLDATASIZE SUB DUP2 ADD SWAP1 PUSH2 0x81 SWAP2 SWAP1 PUSH2 0x407 JUMP JUMPDEST PUSH2 0x176 JUMP JUMPDEST PUSH1 0x40 MLOAD PUSH2 0x93 SWAP2 SWAP1 PUSH2 0x3B0 JUMP JUMPDEST PUSH1 0x40 MLOAD DUP1 SWAP2 SUB SWAP1 RETURN JUMPDEST PUSH2 0xA4 PUSH2 0x29C JUMP JUMPDEST PUSH1 0x40 MLOAD PUSH2 0xB1 SWAP2 SWAP1 PUSH2 0x441 JUMP JUMPDEST PUSH1 0x40 MLOAD DUP1 SWAP2 SUB SWAP1 RETURN JUMPDEST PUSH2 0xD4 PUSH1 0x4 DUP1 CALLDATASIZE SUB DUP2 ADD SWAP1 PUSH2 0xCF SWAP2 SWAP1 PUSH2 0x407 JUMP JUMPDEST PUSH2 0x2A1 JUMP JUMPDEST PUSH1 0x40 MLOAD PUSH2 0xE1 SWAP2 SWAP1 PUSH2 0x3B0 JUMP JUMPDEST PUSH1 0x40 MLOAD DUP1 SWAP2 SUB SWAP1 RETURN JUMPDEST PUSH1 0x1 DUP1 SLOAD PUSH2 0xF7 SWAP1 PUSH2 0x487 JUMP JUMPDEST DUP1 PUSH1 0x1F ADD PUSH1 0x20 DUP1 SWAP2 DIV MUL PUSH1 0x20 ADD PUSH1 0x40 MLOAD SWAP1 DUP2 ADD PUSH1 0x40 MSTORE DUP1 SWAP3 SWAP2 SWAP1 DUP2 DUP2 MSTORE PUSH1 0x20 ADD DUP3 DUP1 SLOAD PUSH2 0x123 SWAP1 PUSH2 0x487 JUMP JUMPDEST DUP1 ISZERO PUSH2 0x16E JUMPI DUP1 PUSH1 0x1F LT PUSH2 0x145 JUMPI PUSH2 0x100 DUP1 DUP4 SLOAD DIV MUL DUP4 MSTORE SWAP2 PUSH1 0x20 ADD SWAP2 PUSH2 0x16E JUMP JUMPDEST DUP3 ADD SWAP2 SWAP1 PUSH0 MSTORE PUSH1 0x20 PUSH0 KECCAK256 SWAP1 JUMPDEST DUP2 SLOAD DUP2 MSTORE SWAP1 PUSH1 0x1 ADD SWAP1 PUSH1 0x20 ADD DUP1 DUP4 GT PUSH2 0x151 JUMPI DUP3 SWAP1 SUB PUSH1 0x1F AND DUP3 ADD SWAP2 JUMPDEST POP POP POP POP POP DUP2 JUMP JUMPDEST PUSH1 0x60 PUSH1 0xF DUP3 EQ PUSH2 0x1C9 JUMPI PUSH1 0x40 MLOAD DUP1 PUSH1 0x40 ADD PUSH1 0x40 MSTORE DUP1 PUSH1 0x15 DUP2 MSTORE PUSH1 0x20 ADD PUSH32 0x4E756D626572206973206E6F7420636F72726563740000000000000000000000 DUP2 MSTORE POP PUSH1 0x1 SWAP1 DUP2 PUSH2 0x1C4 SWAP2 SWAP1 PUSH2 0x681 JUMP JUMPDEST PUSH2 0x20E JUMP JUMPDEST PUSH1 0x40 MLOAD DUP1 PUSH1 0x40 ADD PUSH1 0x40 MSTORE DUP1 PUSH1 0x11 DUP2 MSTORE PUSH1 0x20 ADD PUSH32 0x4E756D62657220697320636F7272656374000000000000000000000000000000 DUP2 MSTORE POP PUSH1 0x1 SWAP1 DUP2 PUSH2 0x20D SWAP2 SWAP1 PUSH2 0x681 JUMP JUMPDEST JUMPDEST DUP1 SLOAD PUSH2 0x219 SWAP1 PUSH2 0x487 JUMP JUMPDEST DUP1 PUSH1 0x1F ADD PUSH1 0x20 DUP1 SWAP2 DIV MUL PUSH1 0x20 ADD PUSH1 0x40 MLOAD SWAP1 DUP2 ADD PUSH1 0x40 MSTORE DUP1 SWAP3 SWAP2 SWAP1 DUP2 DUP2 MSTORE PUSH1 0x20 ADD DUP3 DUP1 SLOAD PUSH2 0x245 SWAP1 PUSH2 0x487 JUMP JUMPDEST DUP1 ISZERO PUSH2 0x290 JUMPI DUP1 PUSH1 0x1F LT PUSH2 0x267 JUMPI PUSH2 0x100 DUP1 DUP4 SLOAD DIV MUL DUP4 MSTORE SWAP2 PUSH1 0x20 ADD SWAP2 PUSH2 0x290 JUMP JUMPDEST DUP3 ADD SWAP2 SWAP1 PUSH0 MSTORE PUSH1 0x20 PUSH0 KECCAK256 SWAP1 JUMPDEST DUP2 SLOAD DUP2 MSTORE SWAP1 PUSH1 0x1 ADD SWAP1 PUSH1 0x20 ADD DUP1 DUP4 GT PUSH2 0x273 JUMPI DUP3 SWAP1 SUB PUSH1 0x1F AND DUP3 ADD SWAP2 JUMPDEST POP POP POP POP POP SWAP1 POP SWAP2 SWAP1 POP JUMP JUMPDEST PUSH0 SLOAD DUP2 JUMP JUMPDEST PUSH1 0x60 PUSH1 0xF DUP3 SUB PUSH2 0x2F5 JUMPI PUSH1 0x40 MLOAD DUP1 PUSH1 0x40 ADD PUSH1 0x40 MSTORE DUP1 PUSH1 0x11 DUP2 MSTORE PUSH1 0x20 ADD PUSH32 0x4E756D62657220697320636F7272656374000000000000000000000000000000 DUP2 MSTORE POP PUSH1 0x1 SWAP1 DUP2 PUSH2 0x2EF SWAP2 SWAP1 PUSH2 0x681 JUMP JUMPDEST POP PUSH2 0x33B JUMP JUMPDEST PUSH1 0x40 MLOAD DUP1 PUSH1 0x40 ADD PUSH1 0x40 MSTORE DUP1 PUSH1 0x15 DUP2 MSTORE PUSH1 0x20 ADD PUSH32 0x4E756D626572206973206E6F7420636F72726563740000000000000000000000 DUP2 MSTORE POP PUSH1 0x1 SWAP1 DUP2 PUSH2 0x339 SWAP2 SWAP1 PUSH2 0x681 JUMP JUMPDEST POP JUMPDEST SWAP2 SWAP1 POP JUMP JUMPDEST PUSH0 DUP2 MLOAD SWAP1 POP SWAP2 SWAP1 POP JUMP JUMPDEST PUSH0 DUP3 DUP3 MSTORE PUSH1 0x20 DUP3 ADD SWAP1 POP SWAP3 SWAP2 POP POP JUMP JUMPDEST DUP3 DUP2 DUP4 MCOPY PUSH0 DUP4 DUP4 ADD MSTORE POP POP POP JUMP JUMPDEST PUSH0 PUSH1 0x1F NOT PUSH1 0x1F DUP4 ADD AND SWAP1 POP SWAP2 SWAP1 POP JUMP JUMPDEST PUSH0 PUSH2 0x382 DUP3 PUSH2 0x340 JUMP JUMPDEST PUSH2 0x38C DUP2 DUP6 PUSH2 0x34A JUMP JUMPDEST SWAP4 POP PUSH2 0x39C DUP2 DUP6 PUSH1 0x20 DUP7 ADD PUSH2 0x35A JUMP JUMPDEST PUSH2 0x3A5 DUP2 PUSH2 0x368 JUMP JUMPDEST DUP5 ADD SWAP2 POP POP SWAP3 SWAP2 POP POP JUMP JUMPDEST PUSH0 PUSH1 0x20 DUP3 ADD SWAP1 POP DUP2 DUP2 SUB PUSH0 DUP4 ADD MSTORE PUSH2 0x3C8 DUP2 DUP5 PUSH2 0x378 JUMP JUMPDEST SWAP1 POP SWAP3 SWAP2 POP POP JUMP JUMPDEST PUSH0 DUP1 REVERT JUMPDEST PUSH0 DUP2 SWAP1 POP SWAP2 SWAP1 POP JUMP JUMPDEST PUSH2 0x3E6 DUP2 PUSH2 0x3D4 JUMP JUMPDEST DUP2 EQ PUSH2 0x3F0 JUMPI PUSH0 DUP1 REVERT JUMPDEST POP JUMP JUMPDEST PUSH0 DUP2 CALLDATALOAD SWAP1 POP PUSH2 0x401 DUP2 PUSH2 0x3DD JUMP JUMPDEST SWAP3 SWAP2 POP POP JUMP JUMPDEST PUSH0 PUSH1 0x20 DUP3 DUP5 SUB SLT ISZERO PUSH2 0x41C JUMPI PUSH2 0x41B PUSH2 0x3D0 JUMP JUMPDEST JUMPDEST PUSH0 PUSH2 0x429 DUP5 DUP3 DUP6 ADD PUSH2 0x3F3 JUMP JUMPDEST SWAP2 POP POP SWAP3 SWAP2 POP POP JUMP JUMPDEST PUSH2 0x43B DUP2 PUSH2 0x3D4 JUMP JUMPDEST DUP3 MSTORE POP POP JUMP JUMPDEST PUSH0 PUSH1 0x20 DUP3 ADD SWAP1 POP PUSH2 0x454 PUSH0 DUP4 ADD DUP5 PUSH2 0x432 JUMP JUMPDEST SWAP3 SWAP2 POP POP JUMP JUMPDEST PUSH32 0x4E487B7100000000000000000000000000000000000000000000000000000000 PUSH0 MSTORE PUSH1 0x22 PUSH1 0x4 MSTORE PUSH1 0x24 PUSH0 REVERT JUMPDEST PUSH0 PUSH1 0x2 DUP3 DIV SWAP1 POP PUSH1 0x1 DUP3 AND DUP1 PUSH2 0x49E JUMPI PUSH1 0x7F DUP3 AND SWAP2 POP JUMPDEST PUSH1 0x20 DUP3 LT DUP2 SUB PUSH2 0x4B1 JUMPI PUSH2 0x4B0 PUSH2 0x45A JUMP JUMPDEST JUMPDEST POP SWAP2 SWAP1 POP JUMP JUMPDEST PUSH32 0x4E487B7100000000000000000000000000000000000000000000000000000000 PUSH0 MSTORE PUSH1 0x41 PUSH1 0x4 MSTORE PUSH1 0x24 PUSH0 REVERT JUMPDEST PUSH0 DUP2 SWAP1 POP DUP2 PUSH0 MSTORE PUSH1 0x20 PUSH0 KECCAK256 SWAP1 POP SWAP2 SWAP1 POP JUMP JUMPDEST PUSH0 PUSH1 0x20 PUSH1 0x1F DUP4 ADD DIV SWAP1 POP SWAP2 SWAP1 POP JUMP JUMPDEST PUSH0 DUP3 DUP3 SHL SWAP1 POP SWAP3 SWAP2 POP POP JUMP JUMPDEST PUSH0 PUSH1 0x8 DUP4 MUL PUSH2 0x540 PUSH32 0xFFFFFFFFFFFFFFFFFFFFFFFFFFFFFFFFFFFFFFFFFFFFFFFFFFFFFFFFFFFFFFFF DUP3 PUSH2 0x505 JUMP JUMPDEST PUSH2 0x54A DUP7 DUP4 PUSH2 0x505 JUMP JUMPDEST SWAP6 POP DUP1 NOT DUP5 AND SWAP4 POP DUP1 DUP7 AND DUP5 OR SWAP3 POP POP POP SWAP4 SWAP3 POP POP POP JUMP JUMPDEST PUSH0 DUP2 SWAP1 POP SWAP2 SWAP1 POP JUMP JUMPDEST PUSH0 PUSH2 0x585 PUSH2 0x580 PUSH2 0x57B DUP5 PUSH2 0x3D4 JUMP JUMPDEST PUSH2 0x562 JUMP JUMPDEST PUSH2 0x3D4 JUMP JUMPDEST SWAP1 POP SWAP2 SWAP1 POP JUMP JUMPDEST PUSH0 DUP2 SWAP1 POP SWAP2 SWAP1 POP JUMP JUMPDEST PUSH2 0x59E DUP4 PUSH2 0x56B JUMP JUMPDEST PUSH2 0x5B2 PUSH2 0x5AA DUP3 PUSH2 0x58C JUMP JUMPDEST DUP5 DUP5 SLOAD PUSH2 0x511 JUMP JUMPDEST DUP3 SSTORE POP POP POP POP JUMP JUMPDEST PUSH0 SWAP1 JUMP JUMPDEST PUSH2 0x5C6 PUSH2 0x5BA JUMP JUMPDEST PUSH2 0x5D1 DUP2 DUP5 DUP5 PUSH2 0x595 JUMP JUMPDEST POP POP POP JUMP JUMPDEST JUMPDEST DUP2 DUP2 LT ISZERO PUSH2 0x5F4 JUMPI PUSH2 0x5E9 PUSH0 DUP3 PUSH2 0x5BE JUMP JUMPDEST PUSH1 0x1 DUP2 ADD SWAP1 POP PUSH2 0x5D7 JUMP JUMPDEST POP POP JUMP JUMPDEST PUSH1 0x1F DUP3 GT ISZERO PUSH2 0x639 JUMPI PUSH2 0x60A DUP2 PUSH2 0x4E4 JUMP JUMPDEST PUSH2 0x613 DUP5 PUSH2 0x4F6 JUMP JUMPDEST DUP2 ADD PUSH1 0x20 DUP6 LT ISZERO PUSH2 0x622 JUMPI DUP2 SWAP1 POP JUMPDEST PUSH2 0x636 PUSH2 0x62E DUP6 PUSH2 0x4F6 JUMP JUMPDEST DUP4 ADD DUP3 PUSH2 0x5D6 JUMP JUMPDEST POP POP JUMPDEST POP POP POP JUMP JUMPDEST PUSH0 DUP3 DUP3 SHR SWAP1 POP SWAP3 SWAP2 POP POP JUMP JUMPDEST PUSH0 PUSH2 0x659 PUSH0 NOT DUP5 PUSH1 0x8 MUL PUSH2 0x63E JUMP JUMPDEST NOT DUP1 DUP4 AND SWAP2 POP POP SWAP3 SWAP2 POP POP JUMP JUMPDEST PUSH0 PUSH2 0x671 DUP4 DUP4 PUSH2 0x64A JUMP JUMPDEST SWAP2 POP DUP3 PUSH1 0x2 MUL DUP3 OR SWAP1 POP SWAP3 SWAP2 POP POP JUMP JUMPDEST PUSH2 0x68A DUP3 PUSH2 0x340 JUMP JUMPDEST PUSH8 0xFFFFFFFFFFFFFFFF DUP2 GT ISZERO PUSH2 0x6A3 JUMPI PUSH2 0x6A2 PUSH2 0x4B7 JUMP JUMPDEST JUMPDEST PUSH2 0x6AD DUP3 SLOAD PUSH2 0x487 JUMP JUMPDEST PUSH2 0x6B8 DUP3 DUP3 DUP6 PUSH2 0x5F8 JUMP JUMPDEST PUSH0 PUSH1 0x20 SWAP1 POP PUSH1 0x1F DUP4 GT PUSH1 0x1 DUP2 EQ PUSH2 0x6E9 JUMPI PUSH0 DUP5 ISZERO PUSH2 0x6D7 JUMPI DUP3 DUP8 ADD MLOAD SWAP1 POP JUMPDEST PUSH2 0x6E1 DUP6 DUP3 PUSH2 0x666 JUMP JUMPDEST DUP7 SSTORE POP PUSH2 0x748 JUMP JUMPDEST PUSH1 0x1F NOT DUP5 AND PUSH2 0x6F7 DUP7 PUSH2 0x4E4 JUMP JUMPDEST PUSH0 JUMPDEST DUP3 DUP2 LT ISZERO PUSH2 0x71E JUMPI DUP5 DUP10 ADD MLOAD DUP3 SSTORE PUSH1 0x1 DUP3 ADD SWAP2 POP PUSH1 0x20 DUP6 ADD SWAP5 POP PUSH1 0x20 DUP2 ADD SWAP1 POP PUSH2 0x6F9 JUMP JUMPDEST DUP7 DUP4 LT ISZERO PUSH2 0x73B JUMPI DUP5 DUP10 ADD MLOAD PUSH2 0x737 PUSH1 0x1F DUP10 AND DUP3 PUSH2 0x64A JUMP JUMPDEST DUP4 SSTORE POP JUMPDEST PUSH1 0x1 PUSH1 0x2 DUP9 MUL ADD DUP9 SSTORE POP POP POP JUMPDEST POP POP POP POP POP POP JUMP INVALID LOG2 PUSH5 0x6970667358 0x22 SLT KECCAK256 0xC9 PUSH5 0xABDCDD8C 0xFC PUSH5 0x15F3CBC737 DUP16 0xE5 0xAF 0xC0 GASPRICE 0x1F 0xD2 JUMP 0x21 0x21 PUSH32 0x24581FA60DF4564736F6C634300081A00330000000000000000000000000000 "
		},
		"gasEstimates": {
			"creation": {
				"codeDepositCost": "385200",
				"executionCost": "22527",
				"totalCost": "407727"
			},
			"external": {
				"getInput(uint256)": "infinite",
				"number()": "2446",
				"shortHand(uint256)": "infinite",
				"text()": "infinite"
			}
		},
		"methodIdentifiers": {
			"getInput(uint256)": "a459600e",
			"number()": "8381f58a",
			"shortHand(uint256)": "2dbceaff",
			"text()": "1f1bd692"
		}
	},
	"abi": [
		{
			"inputs": [
				{
					"internalType": "uint256",
					"name": "_number",
					"type": "uint256"
				}
			],
			"name": "getInput",
			"outputs": [
				{
					"internalType": "string",
					"name": "",
					"type": "string"
				}
			],
			"stateMutability": "nonpayable",
			"type": "function"
		},
		{
			"inputs": [],
			"name": "number",
			"outputs": [
				{
					"internalType": "uint256",
					"name": "",
					"type": "uint256"
				}
			],
			"stateMutability": "view",
			"type": "function"
		},
		{
			"inputs": [
				{
					"internalType": "uint256",
					"name": "_inputNumber",
					"type": "uint256"
				}
			],
			"name": "shortHand",
			"outputs": [
				{
					"internalType": "string",
					"name": "",
					"type": "string"
				}
			],
			"stateMutability": "nonpayable",
			"type": "function"
		},
		{
			"inputs": [],
			"name": "text",
			"outputs": [
				{
					"internalType": "string",
					"name": "",
					"type": "string"
				}
			],
			"stateMutability": "view",
			"type": "function"
		}
	]
}